:020000040800F2
:1000000000000220110A00080D0A00085D840008A3
:100010000D0A00080D0A00080D0A00080000000083
:100020000000000000000000000000000D0A0008B1
:100030000D0A0008000000000D0A0008E183000816
:100040000D0A00080D0A00080D0A00080D0A000834
:100050000D0A00080D0A00080D0A00080D0A000824
:100060000D0A00080D0A00080D0A0008E97F0008C3
:10007000F57F0008416F0008018000080D8000082E
:10008000BD380108157500080D0A00080D0A0008A2
:100090000D0A00080D0A00080D0A00080D0A0008E4
:1000A0000D0A00080D0A00080D0A00080D0A0008D4
:1000B000652C0108712C01087D2C01084975000888
:1000C0000D0A0008557500080D0A0008D52401081E
:1000D000E1240108F13601082137010855370108EC
:1000E0000D0A00080D0A0008000000000D0A0008B3
:1000F0000D0A00080D0A00080D0A00080D0A000884
:100100000D0A00080D0A0008892C0108ED240108D9
:1001100089370108BD3701080D0A00080D0A0008DB
:100120000D0A00080D0A00081125010845250108DF
:10013000F13801080D0A00080D0A00080D0A000830
:1001400000000000000000000000000000000000AF
:100150000D0A00080D0A00080D0A0008F137010811
:10016000617500080D0A0008F18300081584000875
:100170000D0A0008398400080D0A00080D0A00085D
:100180000D0A00080D0A0008253801085538010835
:10019000F9240108052501080D0A00080D0A0008C8
:1001A0000D0A00080D0A00080D0A00080D0A0008D3
:1001B000097D00080D0A00080D0A00080D0A000854
:1001C0000D0A00080D0A0008616A00086D6A00083F
:1001D0000D0A0008796A00080D0A00080D0A0008D7
:1001E0000D0A00080D0A00080D0A00080D0A000893
:1001F0000D0A00080D0A00080D0A00080D0A000883
:100200000D0A00080D0A00080D0A00080D0A000872
:100210000D0A00080D0A00080D0A00080D0A000862
:100220000D0A00080D0A00080D0A00080000000071
:100230000D0A00080D0A0008000000000D0A000861
:100240000D0A00080D0A00080D0A00080D0A000832
:100250000D0A00080D0A00080D0A00080D0A000822
:100260000D0A00080D0A00080D0A00080D0A000812
:100270000D0A00080D0A0008893801080000000076
:100280000D0A00080D0A00080D0A00080000000011
:08029000000000000D0A000847
:1002A00010B5054C237833B9044B13B10448AFF3B0
:1002B00000800123237010BDB80700240000000057
:1002C00080B4010808B5034B1BB103490348AFF3E1
:1002D000008008BD00000000BC07002480B40108B5
:1002E00001F0FF01102A2BDB10F0070F08D010F8E7
:1002F000013B013A8B422DD010F0070F42B3F6D1EB
:10030000F0B441EA012141EA014122F007047FF003
:1003100000070023F0E80256083C85EA010586EA5A
:10032000010685FA47F5A3FA87F586FA47F6A5FA96
:1003300087F68EB9EED1F0BC01F0FF0102F00702A2
:1003400032B110F8013B013A83EA010313B1F8D14D
:100350000020704701387047002D06BF354603382E
:10036000073815F0010F07D1013015F4807F02BF67
:10037000013015F4C03F0130F0BC0138704700BFB8
:10038000034613F8012B002AFBD1181A01387047D5
:1003900081F0004102E000BF83F0004330B54FEA36
:1003A00041044FEA430594EA050F08BF90EA020FA3
:1003B0001FBF54EA000C55EA020C7FEA645C7FEA36
:1003C000655C00F0E2804FEA5454D4EB5555B8BF59
:1003D0006D420CDD2C4480EA020281EA030382EACA
:1003E000000083EA010180EA020281EA0303362D5C
:1003F00088BF30BD11F0004F4FEA01314FF4801C2F
:100400004CEA113102D0404261EB410113F0004F40
:100410004FEA03334CEA133302D0524263EB4303F7
:1004200094EA050F00F0A780A4F10104D5F1200E95
:100430000DDB02FA0EFC22FA05F2801841F10001F0
:1004400003FA0EF2801843FA05F359410EE0A5F1C4
:1004500020050EF1200E012A03FA0EFC28BF4CF0F5
:10046000020C43FA05F3C01851EBE37101F00045AB
:1004700007D54FF0000EDCF1000C7EEB00006EEBB8
:100480000101B1F5801F1BD3B1F5001F0CD3490842
:100490005FEA30004FEA3C0C04F101044FEA445299
:1004A00012F5800F80F09A80BCF1004F08BF5FEA20
:1004B000500C50F1000041EB045141EA050130BD00
:1004C0005FEA4C0C404141EB0101013C28BFB1F512
:1004D000801FE9D291F0000F04BF01460020B1FA5D
:1004E00081F308BF2033A3F10B03B3F120020CDA30
:1004F0000C3208DD02F1140CC2F10C0201FA0CF00E
:1005000021FA02F10CE002F11402D8BFC2F1200C72
:1005100001FA02F120FA0CFCDCBF41EA0C01904028
:10052000E41AA2BF01EB0451294330BD6FEA040471
:100530001F3C1CDA0C340EDC04F11404C4F120025C
:1005400020FA04F001FA02F340EA030021FA04F36E
:1005500045EA030130BDC4F10C04C4F1200220FAC5
:1005600002F001FA04F340EA0300294630BD21FA03
:1005700004F0294630BD94F0000F83F4801306BFC9
:1005800081F480110134013D4EE77FEA645C18BFBD
:100590007FEA655C29D094EA050F08BF90EA020F54
:1005A00005D054EA000C04BF1946104630BD91EA4C
:1005B000030F1EBF0021002030BD5FEA545C05D14F
:1005C0004000494128BF41F0004130BD14F580048E
:1005D0003CBF01F5801130BD01F0004545F0FE4102
:1005E00041F470014FF0000030BD7FEA645C1ABF37
:1005F000194610467FEA655C1CBF0B46024650EA6E
:10060000013406BF52EA033591EA030F41F4002199
:1006100030BD00BF90F0000F04BF0021704730B51F
:100620004FF4806404F132044FF000054FF00001F4
:1006300050E700BF90F0000F04BF0021704730B5B5
:100640004FF4806404F1320410F0004548BF40428A
:100650004FF000013EE700BF42004FEAE2014FEADF
:1006600031014FEA02701FBF12F07F4393F07F4FBA
:1006700081F06051704732F07F4208BF704793F0BD
:100680007F4F04BF41F40021704730B54FF46074D0
:1006900001F0004521F000411CE700BF50EA0102D3
:1006A00008BF704730B54FF000050AE050EA01027C
:1006B00008BF704730B511F0004502D5404261EBEC
:1006C00041014FF4806404F132045FEA915C3FF42D
:1006D000D8AE4FF003025FEADC0C18BF03325FEACA
:1006E000DC0C18BF033202EBDC02C2F1200300FA7B
:1006F00003FC20FA02F001FA03FE40EA0E0021FAA0
:1007000002F11444BDE600BF53B94AB9002908BF3D
:1007100000281CBF4FF0FF314FF0FF3000F074B9DC
:10072000ADF1080C6DE904CE00F006F8DDF804E048
:10073000DDE9022304B070472DE9F047089D044627
:100740008E46002B4DD18A42944669D9B2FA82F284
:1007500052B101FA02F3C2F1200120FA01F10CFAC0
:1007600002FC41EA030E94404FEA1C48210CBEFBF8
:10077000F8F61FFA8CF708FB16E341EA034306FB81
:1007800007F199420AD91CEB030306F1FF3080F010
:100790001F81994240F21C81023E63445B1AA4B25D
:1007A000B3FBF8F008FB103344EA034400FB07F7FF
:1007B000A7420AD91CEB040400F1FF3380F00A8140
:1007C000A74240F207816444023840EA0640E41B35
:1007D00000261DB1D4400023C5E900433146BDE8E1
:1007E000F0878B4209D9002D00F0EF800026C5E983
:1007F000000130463146BDE8F087B3FA83F6002E9B
:100800004AD18B4202D3824200F2F980841A61EB12
:10081000030301209E46002DE0D0C5E9004EDDE730
:1008200002B9FFDEB2FA82F2002A40F09280A1EB18
:100830000C014FEA1C471FFA8CFE0126200CB1FB6D
:10084000F7F307FB131140EA01410EFB03F0884266
:1008500008D91CEB010103F1FF3802D2884200F2F3
:10086000CB804346091AA4B2B1FBF7F007FB101185
:1008700044EA01440EFB00FEA64508D91CEB040423
:1008800000F1FF3102D2A64500F2BB800846A4EB7E
:100890000E0440EA03409CE7C6F12007B34022FA69
:1008A00007FC4CEA030C20FA07F401FA06F31C4398
:1008B000F9404FEA1C4900FA06F3B1FBF9F8200CA5
:1008C0001FFA8CFE09FB181140EA014108FB0EF0EB
:1008D000884202FA06F20BD91CEB010108F1FF3A3B
:1008E00080F08880884240F28580A8F10208614447
:1008F000091AA4B2B1FBF9F009FB101144EA014155
:1009000000FB0EFE8E4508D91CEB010100F1FF34FF
:100910006CD28E456AD90238614440EA0840A0FB97
:100920000294A1EB0E01A142C846A64656D353D06D
:100930005DB1B3EB080261EB0E0101FA07F722FA91
:1009400006F3F1401F43C5E9007100263146BDE8BA
:10095000F087C2F12003D8400CFA02FC21FA03F31D
:10096000914001434FEA1C471FFA8CFEB3FBF7F09E
:1009700007FB10360B0C43EA064300FB0EF69E42C3
:1009800004FA02F408D91CEB030300F1FF382FD25C
:100990009E422DD9023863449B1B89B2B3FBF7F604
:1009A00007FB163341EA034106FB0EF38B4208D9DD
:1009B0001CEB010106F1FF3816D28B4214D9023E1E
:1009C0006144C91A46EA004638E72E46284605E73C
:1009D0000646E3E61846F8E64B45A9D2B9EB02080D
:1009E00064EB0C0E0138A3E74646EAE7204694E79D
:1009F0004046D1E7D0467BE7023B614432E73046D0
:100A000009E76444023842E7704700BFFEE700BFD1
:100A10000B480C4A904203D0121A0B4916F0FAFE0A
:100A20000A480B4A904203D0121A002116F01AFF0E
:100A300007F044FF16F0AAFE02F086FFFEE700BFB3
:100A400000000024B4070024B4B40108B80700244F
:100A500048880024704700BF704700BF704700BF40
:100A6000704700BF704700BFA1EB000C4FEAAC031A
:100A70004FEA2C1CBCF1000F40DD00EB0C1C10B445
:100A800013780BE04468A3420ED08468A3420FD0D1
:100A9000C468A34210D01030604511D004689C4255
:100AA000F0D15DF8044B704704305DF8044B70479B
:100AB00008305DF8044B70470C305DF8044B70470C
:100AC0000B1A9B10022B13D0032B0BD0012B03D03E
:100AD00008465DF8044B7047137802689A42E0D0EC
:100AE0000846F6E7137802689A42DAD0043000E04C
:100AF000137802689A42D4D00430EEE7022B05D076
:100B0000032B0ED0012B0AD00846704713780268D9
:100B10009A4203D0043002689A42F5D170471378A4
:100B2000F9E7137802689A42F8D00430EFE700BF83
:100B3000F0B500F1080783B0076029B30446084602
:100B40000E46FFF71DFC0F28054601900DD8012821
:100B500008D133782372019B002122686360D1544D
:100B600003B0F0BD0028F6D008E0002201A920461D
:100B700016F06EF9019B07462060A3602A463146B5
:100B8000384616F047FEE6E7014816F04FF900BF79
:100B900030A8010881423FD083682DE9F0430D461B
:100BA000076883B00446A3EB0708D1E90019A9EB55
:100BB000010646450FD84068C21B96422DD889458C
:100BC00004D03846324616F033FE27683E4466604D
:100BD00003B0BDE8F083002E35D01D4B9E4234D8C3
:100BE0003046019116F05BF82768A3680546019925
:100BF000A3EB0708894503D03246284616F00AFEC3
:100C00001FB14146384616F048F82E442560A660CC
:100C1000666003B0BDE8F08370473AB1384616F01D
:100C200007FED4E90070D5E90019C21B11444945FB
:100C3000CCD0A9EB010216F0FBFD23681E446660D0
:100C400003B0BDE8F0833546D4E716F0ECF800BFFA
:100C5000FCFFFF7F10B50446006818B1A168091AAF
:100C600016F01BF8204610BDE8B138B504462546FD
:100C7000E068FFF7F9FFA468AB6A18461BB1296B5F
:100C8000C91A16F00AF8286905F11803984203D02A
:100C9000A969013116F001F83421284615F0FDFF4D
:100CA000002CE4D138BD704710B504468068FFF7CA
:100CB000DBFF204610BD00BF2DE9F04F83B0009050
:100CC000002800F0D880009BD3F80C90B9F1000FF9
:100CD00000F0BF80D9F80CA0BAF1000F00F0A58099
:100CE000DAF80CB0BBF1000F00F08B80DBF80C40A1
:100CF000002C5ED0E568002D38D0EE68002E46D07E
:100D0000F768002F69D0D7F80C80B8F1000F19D020
:100D1000D8F80C00CDF80480FFF7CEFF019AD8F880
:100D20000880106902F11801884204D091690131EC
:100D300015F0B3FF019A2C21104615F0AEFFB8F163
:100D4000000FE5D1386907F11802D7F80880904202
:100D500003D0B969013115F0A0FF2C21384615F0F8
:100D60009CFFB8F1000F38D04746CCE7206904F16A
:100D70001803A568984203D0A169013115F08DFFD1
:100D80002C21204615F089FF9DB12C46B2E7286939
:100D900005F11803AE68984203D0A969013115F036
:100DA0007CFF2C21284615F078FF002EDED035463A
:100DB000A3E7DBF810000BF11803DBF808409842BA
:100DC00004D0DBF81810013115F067FF2C215846CC
:100DD00015F063FFACB1A34688E7306906F118034C
:100DE000D6F80880984203D0B169013115F055FF5B
:100DF0002C21304615F051FFB8F1000FC7D0464600
:100E00007EE7DAF810000AF11803DAF80840984291
:100E100004D0DAF81810013115F03FFF2C215046AC
:100E200015F03BFF0CB1A2465AE7D9F8100009F1C2
:100E30001803D9F80840984204D0D9F818100131A5
:100E400015F02BFF2C21484615F027FF0CB1A146C9
:100E500040E7009A106902F118039468984203D0A1
:100E60009169013115F019FF2C21009815F015FF3B
:100E70000CB1009427E703B0BDE8F08F2DE9F043F3
:100E8000044685B02C200E4615F009FFA5690746DB
:100E90001C30D4E9043818EB050FC7E9043002D040
:100EA000B8F1000F71D00F2D03955ED8012D45D1FB
:100EB00098F800303B770023BD6143552278E06805
:100EC0003A707E60C7E9023318B13946FFF7D6FFA2
:100ED000F860A56875B33C462C20A14615F0DFFEEE
:100EE0002B6904461C302361AE696061D5F814801B
:100EF00018EB060F02D0B8F1000F46D00F2E039664
:100F000022D8012E1DD198F8003023770023A66146
:100F100083552A78C4E902332270C9F80840C4F81E
:100F20000490E86818B12146FFF7A8FFE060AD68BB
:100F3000002DD1D1384605B0BDE8F083002DBAD0E0
:100F40001CE0002EE2D009E0002203A904F1140005
:100F500015F07EFF039B01906061E36132464146DC
:100F600016F058FC039E6069D0E7002203A907F140
:100F7000140015F06DFF039B7861FB612A46414622
:100F800016F048FC039D786995E7014815F04EFF7F
:100F900030A801082DE9F043044683B02C200E460A
:100FA00015F07DFE07461830D4E90485386118EB4A
:100FB000050F02D0B8F1000F72D00F2D01955FD848
:100FC000012D47D198F800303B7600237D614355D1
:100FD000A26AE068BA627E60C7E9023323783B7098
:100FE00018B13946FFF7D6FFF860A56875B33C46DF
:100FF0002C20A04615F053FE044618306E6920617F
:10100000D5F8109019EB060F02D0B9F1000F47D0B8
:101010000F2E019624D8012E1FD199F80030237687
:10102000002366618355A96A2A78A1622270C4E907
:101030000233C8F80840C4F80480E86818B12146B3
:10104000FFF7A8FFE060AD68002DD1D1384603B0AE
:10105000BDE8F083002DB8D01BE0002EE0D008E002
:10106000002201A904F1100015F0F2FE019B20619D
:10107000A3613246494616F0CDFB019E2069CFE7B9
:10108000002201A907F1100015F0E2FE019B386172
:10109000BB612A46414616F0BDFB019D386994E7C5
:1010A000014815F0C3FE00BF30A801082DE9F04F3C
:1010B00083B00090002800F0D880009BD3F80C90FB
:1010C000B9F1000F00F0BF80D9F80CA0BAF1000F01
:1010D00000F0A580DAF80CB0BBF1000F00F08B80B7
:1010E000DBF80C40002C5ED0E568002D38D0EE68AF
:1010F000002E46D0F768002F69D0D7F80C80B8F1E1
:10110000000F19D0D8F80C00CDF80480FFF7CEFFFF
:10111000019AD8F80880506902F11C01884204D075
:10112000D169013115F0B9FD019A2C21104615F055
:10113000B4FDB8F1000FE5D1786907F11C02D7F8CA
:101140000880904203D0F969013115F0A6FD2C21E9
:10115000384615F0A2FDB8F1000F38D04746CCE76D
:10116000606904F11C03A568984203D0E16901316C
:1011700015F093FD2C21204615F08FFD9DB12C46D6
:10118000B2E7686905F11C03AE68984203D0E969CB
:10119000013115F082FD2C21284615F07EFD002E30
:1011A000DED03546A3E7DBF814000BF11C03DBF8B7
:1011B0000840984204D0DBF81C10013115F06DFD99
:1011C0002C21584615F069FDACB1A34688E770693B
:1011D00006F11C03D6F80880984203D0F16901316A
:1011E00015F05BFD2C21304615F057FDB8F1000FCE
:1011F000C7D046467EE7DAF814000AF11C03DAF895
:101200000840984204D0DAF81C10013115F045FD71
:101210002C21504615F041FD0CB1A2465AE7D9F8F1
:10122000140009F11C03D9F80840984204D0D9F8F9
:101230001C10013115F031FD2C21484615F02DFD13
:101240000CB1A14640E7009A506902F11C03946872
:10125000984203D0D169013115F01FFD2C2100986F
:1012600015F01BFD0CB1009427E703B0BDE8F08F2B
:10127000F8B51F4F07F51B66346C9CB12546E06836
:10128000FFF714FFA468686905F11C03984203D0B6
:10129000E969013115F001FD2C21284615F0FDFC0E
:1012A000002CEBD1B46A9CB12546E068FFF704FD41
:1012B000A468286905F11803984203D0A96901318F
:1012C00015F0EBFC2C21284615F0E7FC002CEBD1A7
:1012D000706806F10C03984203D0F168013115F0F3
:1012E000DCFCBE42A6F1500301D01E46C4E7F8BDA7
:1012F000180C002470B5846806469CB12546E06849
:10130000FFF7D4FEA468686905F11C03984203D076
:10131000E969013115F0C1FC2C21284615F0BDFC0E
:10132000002CEBD1304670BD70B5046C06469CB104
:101330002546E068FFF7BAFEA468686905F11C035A
:10134000984203D0E969013115F0A7FC2C21284609
:1013500015F0A3FC002CEBD1B46A9CB12546E068E3
:10136000FFF7AAFCA468286905F11803984203D086
:10137000A969013115F091FC2C21284615F08DFC4E
:10138000002CEBD1706806F10C03984203D0F16891
:10139000013115F082FC304670BD00BF2DE9F047E9
:1013A000566884B0174604468846002E00F0AA808E
:1013B00073685360002B00F0C280DA6896424FF0E9
:1013C000000200F0C2809A60306906F118094845B1
:1013D00003D0B169013115F060FCC6F81090D4E972
:1013E00004A51AEB050F03D0BAF1000F00F02C8111
:1013F0000F2D039500F20581012D40F0A2809AF88F
:10140000003033760023756109F80530A36AB362B2
:101410002378C6F8048033700023C6E90233E068FD
:1014200020B13A463146FFF7B9FFF060A568002DBC
:1014300000F0A1807C68B046002C45D063687B60DA
:10144000002B00F09C80DA6894424FF0000200F01C
:10145000B0809A60206904F11809484503D0A16959
:10146000013115F01AFCC4F81090D5E904A31AEB69
:10147000030F03D0BAF1000F00F0E6800F2B0393A7
:1014800000F28280012B7CD19AF800202276002283
:10149000636109F80320AB6AA3622A7800232270F3
:1014A000C4E90233C8F80840C4F80480E86820B1F1
:1014B0003A462146FFF772FFE060AD68002D5AD032
:1014C000A0467C68002CB9D12C2015F0E8FB04461E
:1014D00018306B692061D5F8109019EB030F03D019
:1014E000B9F1000F00F0B0800F2B039377D8012BD8
:1014F00072D199F80020227600226361C254AB6A4F
:10150000A362CAE72C2015F0CAFB06461830D4E9BE
:101510000495306119EB050F03D0B9F1000F00F00D
:1015200093800F2D03957FD8012D21D199F800309C
:101530003376002375614355A36AB36268E713608D
:1015400042E7002D3FF45EAF65E0DA609A68002A5A
:101550003FF43AAFD3687A6023B11A46DB68002BB8
:10156000FBD17A609368002B3FF42EAF7B602BE7B2
:10157000002DDED061E0304604B0BDE8F0873B606E
:1015800068E7002B83D00BE0002203A904F11000D0
:10159000019315F05DFC039A8146019B2061A261D5
:1015A0001A464846514616F035F9039BD4F8109078
:1015B0006DE7DA609A68002A3FF44CAFD3687A602E
:1015C00023B11A46DB68002BFBD17A609368002BAD
:1015D0003FF440AF7B603DE7002B8DD00AE0002256
:1015E00003A904F11000019315F032FC039A019B4A
:1015F0002061A2611A46494616F00CF9039B206946
:101600007AE7002203A906F1100015F021FC039BE4
:1016100081463061B3612A464846514616F0FAF8D1
:10162000039DD6F81090EDE6002203A906F1100004
:1016300015F00EFC039B3061B3612A46494616F053
:10164000E9F8039D306974E7014815F0EFFB00BF2E
:1016500030A8010870B5036984B0846805460E4659
:101660000390CDE90143002C36D000229B686260D4
:1016700003B102930023291DC5E90231B068C5E911
:10168000041398B101AAFFF789FE03461A469B6826
:10169000002BFBD10346EA601A46DB68002BFBD126
:1016A0007369019C2A61A8606B619CB12546E06862
:1016B000FFF702FBA468286905F11803984203D0DC
:1016C000A969013115F0E9FA2C21284615F0E5FA4F
:1016D000002CEBD104B070BD8460011DB068029491
:1016E0006C61C5E903110028CCD104B070BD00BF06
:1016F0002DE9F047566884B0174604468846002E08
:1017000000F0AA8073685360002B00F0C380DA6891
:1017100096424FF0000200F0C3809A60706906F1B3
:101720001C09484503D0F169013115F0B6FA236967
:10173000C6E90439D4E905A51AEB050F03D0BAF1BF
:10174000000F00F02C810F2D039500F20581012D73
:1017500040F0A2809AF8003033770023B56109F891
:1017600005302378C6F8048033700023C6E90233BD
:10177000E06820B13A463146FFF7BAFFF060A5684D
:10178000002D00F0A3807C68B046002C46D0636832
:101790007B60002B00F09E80DA6894424FF00002DC
:1017A00000F0B2809A60606904F11C09484503D0DA
:1017B000E169013115F071FA2B69C4F81490D5F87C
:1017C00014A02361AB691AEB030F03D0BAF1000F29
:1017D00000F0E5800F2B039300F28180012B7BD179
:1017E0009AF8002022770022A36109F803202A78C2
:1017F00000232270C4E90233C8F80840C4F804800A
:10180000E86820B13A462146FFF772FFE060AD6814
:10181000002D5BD0A0467C68002CB8D12C2015F0A0
:101820003EFA2B6904461C302361AB696061D5F830
:10183000149019EB030F03D0B9F1000F00F0AF8043
:101840000F2B039376D8012B71D199F800202277C2
:101850000022A361C254CAE72C2015F020FA2369A4
:1018600006461C3040F80C3C7061D4E9059519EB34
:10187000050F03D0B9F1000F00F091800F2D0395F3
:101880007DD8012D1FD199F8003033770023B56141
:10189000435566E7136041E7002D3FF45EAF65E016
:1018A000DA609A68002A3FF439AFD3687A6023B1CE
:1018B0001A46DB68002BFBD17A609368002B3FF45B
:1018C0002DAF7B602AE7002DE0D061E0304604B008
:1018D000BDE8F0873B6066E7002B84D00BE0002278
:1018E00003A904F11400019315F0B2FA039A81469A
:1018F000019B6061E2611A464846514615F08AFF35
:10190000039BD4F814906EE7DA609A68002A3FF4DB
:101910004AAFD3687A6023B11A46DB68002BFBD14B
:101920007A609368002B3FF43EAF7B603BE7002B6F
:101930008ED00AE0002203A904F11400019315F0EF
:1019400087FA039A019B6061E2611A46494615F0E5
:1019500061FF039B60697BE7002203A906F1140085
:1019600015F076FA039B81467061F3612A4648467A
:10197000514615F04FFF039DD6F81490EDE6002276
:1019800003A906F1140015F063FA039B7061F3617B
:101990002A46494615F03EFF039D706976E70148E7
:1019A00015F044FA30A8010870B5036984B0846862
:1019B00005460E460390CDE90143002C36D00022A7
:1019C0009B68626003B102930023291DC5E90231BF
:1019D000B068C5E9041398B101AAFFF789FE034670
:1019E0001A469B68002BFBD10346EA601A46DB6867
:1019F000002BFBD17369019C2A61A8606B619CB1CB
:101A00002546E068FFF752FBA468686905F11C03EE
:101A1000984203D0E969013115F03FF92C2128469D
:101A200015F03BF9002CEBD104B070BD8460011DB2
:101A3000B06802946C61C5E903110028CCD104B0F0
:101A400070BD00BF70B50D1E20DD041F002604EB25
:101A50008501224652F8043F8A421E44FAD116F00C
:101A6000F9FD90FBF6F303FB1603002003E00130C1
:101A70009B1A854204D054F8042F9A42F7DD70BDBA
:101A8000044B1321044A054815F034FE16F0E2FD1C
:101A9000FFDE00BF5CA8010884A80108A4A8010813
:101AA000F0B583B0002302AC04E9060004461148F7
:101AB000B0EB820FA360C4E9003318D396007EB167
:101AC00030460F4615F0EBF80546394632463544A8
:101AD0002060A56015F09EFE2046656003B0F0BD55
:101AE000354620462660A660656003B0F0BD02481A
:101AF00015F09FF9FCFFFF7FB0A801082DE9F04128
:101B0000044600F1080782B008462760884615465B
:101B1000FEF736FC0F280646019017D8012812D18F
:101B200098F800302372002366602046BB55D5E943
:101B300000122B60E261AA68A1616B60AB60226257
:101B400002B0BDE8F0810028EDD008E0002201A934
:101B5000204615F07DF9019B07462060A3603246C0
:101B60003846414615F056FE019E2768DBE700BF68
:101B70002DE9F041044600F1080782B008462760CD
:101B800088461546FEF7FCFB0F280646019017D83D
:101B9000012812D198F80030237200236660204695
:101BA000BB55D5E900122B60E261AA68A1616B60A8
:101BB000AB60226202B0BDE8F0810028EDD008E001
:101BC000002201A9204615F043F9019B0746206039
:101BD000A36032463846414615F01CFE019E276838
:101BE000DBE700BF2DE9F041044600F1080782B0B1
:101BF0000846276088461546FEF7C2FB0F280646B2
:101C0000019017D8012812D198F8003023720023D0
:101C100066602046BB55D5E900122B60E261AA68D8
:101C2000A1616B60AB60226202B0BDE8F081002868
:101C3000EDD008E0002201A9204615F009F9019B2A
:101C400007462060A36032463846414615F0E2FD63
:101C5000019E2768DBE700BF2DE9F041044600F153
:101C6000080782B00846276088461546FEF788FBBD
:101C70000F280646019017D8012812D198F8003095
:101C80002372002366602046BB55D5E900122B6005
:101C9000E261AA68A1616B60AB60226202B0BDE83C
:101CA000F0810028EDD008E0002201A9204615F0BF
:101CB000CFF8019B07462060A36032463846414674
:101CC00015F0A8FD019E2768DBE700BF2DE9F04174
:101CD000044600F1080782B008462760884615468A
:101CE000FEF74EFB0F280646019017D8012812D1A7
:101CF00098F800302372002366602046BB55D5E972
:101D000000122B60E261AA68A1616B60AB60226285
:101D100002B0BDE8F0810028EDD008E0002201A962
:101D2000204615F095F8019B07462060A3603246D7
:101D30003846414615F06EFD019E2768DBE700BF7F
:101D40002DE9F84384688CB300F10408D1E90096CA
:101D500047466569B5422A4628BF324622B1494600
:101D6000206915F047FD00B9A81B0028D4E902320C
:101D700018DB27461C46002CEBD1B84516D07C69F1
:101D8000B442224628BF324652B14846396915F05E
:101D900031FD28B1002809DB07F12800BDE8F883F0
:101DA000301BF7E71446002CD3D1E6E7014815F0C5
:101DB00043F800BFE4A8010870B5D1E9002500236D
:101DC0000E46AD1A04468360C0E9003319D00F4BAC
:101DD0009D4218D8284614F062FF03461D44C4E90A
:101DE0000033A560D6E900108842A0EB010504D0BD
:101DF00018462A4615F01CFD03462B442046636016
:101E000070BD2B46EAE715F00EF800BFFCFFFF7F20
:101E100010B50446006818B1A168091A14F03DFF16
:101E2000204610BD2DE9F04F8C6883B08B4681466B
:101E30000192A4B3019BD3E900A800E014466669AF
:101E4000454627695046B045394628BF35462A469B
:101E500015B115F0CFFC08B9A8EB06000028D4E9AD
:101E60000212AEBF00210A460121002AE6D1B9B90B
:101E7000A3468DB12A465146384615F0BBFC58B1F1
:101E800000284FF000034846B4BFC9E9003BC9E948
:101E9000004303B0BDE8F08FA6EB0800F0E70C1D8F
:101EA000DBF80C30A3420ED02046A34614F05EFFB0
:101EB000019B0446D0E90476D3E900A8354646459F
:101EC00028BF4546D5E700234846C9E9003403B09A
:101ED000BDE8F08F2DE9F04F1F460B1D83B00E4675
:101EE0009A4205464DD01446D7E900B8D2E9041904
:101EF000C246C84528BFCA46BAF1000F1CD0524698
:101F00005846019115F076FC0028019902D1A8EB02
:101F10000903002B14DB08465246594615F06AFCAB
:101F200008B9A9EB0800002850DB0023C5E90043ED
:101F3000284603B0BDE8F08FA8EB0903002BF0DAC8
:101F4000F368A34217D0204614F010FFD0F814A075
:101F50008146C245524628BF424622B159460069D1
:101F600015F048FC08B9AAEB0800002825DAD9F8D2
:101F70000C30002B4BD02846C5E9004403B0BDE827
:101F8000F08F4B69CBB10C69D7F80480D4F814906A
:101F9000C1454A4628BF424622B13968206915F03A
:101FA00029FC08B9A9EB0800002806DA0023284616
:101FB000C5E9003403B0BDE8F08F28463A46314603
:101FC000FFF730FF284603B0BDE8F08F3369A34226
:101FD000ECD0204614F0C8FED0F814A08146C245CB
:101FE000524628BF424662B15846D9F8101015F043
:101FF00001FC30B10028E0DAE3682BB1C5E90099B3
:1020000096E7A8EB0A00F5E7C5E9003490E7C5E9D3
:1020100000398DE72DE9F047154684B006462C209F
:102020000F4614F03CFE2A6800F11809044600F13E
:102030001003C0F81090D2E9008518EB050F02D00C
:10204000B8F1000F66D00F2D029529D8012D21D1AE
:1020500098F80020CC460DF1080A2276002165612F
:102060003A4650460CF80510A1623146FFF732FFA0
:10207000DDE9027555B3331D002F36D001202A4605
:10208000214614F075FE736920460133736104B074
:10209000BDE8F087002D40D1CC460DF1080ADDE700
:1020A0000DF1080A002218460193514614F0D0FEA3
:1020B000029A019B2061A2612A464146019315F0D4
:1020C000A9FB029DD4F810C0019BC7E72069814598
:1020D00003D0A169013114F0E0FD20462C2114F059
:1020E000DCFD384604B0BDE8F0879D42C6D0D4F888
:1020F00014806F694246B84528BF3A4632B1296913
:102100002069019315F076FB019B08B9A8EB070045
:10211000C00FB4E7034814F089FE48460DF1080AE1
:10212000CAE700BF30A80108F7EE000A03469FED9A
:10213000621A00216148B0EE600A2DE9F04F85B0C7
:102140001C46019303F048F9F7EE000A9FED5A1A76
:1021500001215A48B0EE600A03F03EF9F7EE000A9A
:102160009FED551A02215548B0EE600A03F034F98C
:10217000F7EE000A9FED501A03215048B0EE600AB6
:1021800003F02AF94D4803F02DF94D4804F0FAFA0E
:102190004C4A13684C4A23441278934271DC4B4AF0
:1021A0001278524293426CDBE3B2494F009317F826
:1021B000083CA7F12009009A46494846134407F80D
:1021C000083C14F085FF00286CD017F8063CB1EEEF
:1021D000005B17F8082C013B07EE102A06EE903A38
:1021E000B8EEC77BB8EEE66B9FED314BA6EE047BF5
:1021F00037EE457BB7EEC77B7C68A7F1040A07ED95
:10220000097A002C44D0B84657E908B665695946A2
:10221000B5422A4628BF32461AB1206915F0EAFABB
:1022200000B9A81B0028D4E902322DDBA0461C46C9
:10223000002CEBD1B8452CD0D8F81440B44222463B
:1022400028BF32462AB15846D8F8101015F0D2FAF5
:1022500000B9301B00281CDB17F8083C5037D8F8B1
:102260002820013303EB43039B00013B134407F891
:10227000573C194BBB429AD1124A019913680B443F
:10228000136005B0BDE8F08F1446002CBED1D1E735
:10229000B846414603AA5046CDF80C90FFF7BAFE67
:1022A0008046D9E79FED047AA6E700BFAFF3008030
:1022B000F792C6681D55B53F000000009408002441
:1022C000ECA80108340B00240D0000240C000024AD
:1022D0003C0C00240CA901083C1600242DE9F04315
:1022E000154685B007462C200E4614F0D8FC2B4628
:1022F00000F11808044600F1100253F8081BC0F85A
:10230000108099424DD00161A96881612B60002342
:10231000696802A82B726B60AB6961613146A36288
:10232000FFF780FDDDE9029545B3331DB9F1000FDC
:102330000ED001202A46214614F01AFD73690122AD
:1023400038463C6013443A71736105B0BDE8F083D0
:102350009D42EED0D4F81490D5F814804A46C14579
:1023600028BF424632B129692069019315F042FA2B
:10237000019B08B9A9EB0800C00FDBE72069804585
:1023800003D0A169013114F088FC20462C2114F0FF
:1023900084FC00233846C7F800903B7105B0BDE8C7
:1023A000F083A96881615968C8F804109968C8F871
:1023B0000810D968C8F80C10A8E700BF2DE9F84349
:1023C0008C6880469146B4B1166800E01C462569C9
:1023D000E268B542A368D6BF134601270027002B49
:1023E000F4D14FB9AE42234613DC00234046C8E97E
:1023F0000043BDE8F8830C1DCB68A3420FD02046F4
:1024000014F0B4FCD9F80060056923460446AE42D6
:10241000EBDD00224046C8E90023BDE8F883002335
:102420004046C8E90034BDE8F88300BF2DE9F0411B
:102430001D460B1D0F4606469A4224D0D5F8008053
:102440001446136943450FDDCB68934236D01046DE
:1024500014F08CFC036943451CDAC3689BB3304617
:10246000C6E90044BDE8F0811CDA0B6993421FD035
:10247000104614F079FC036998450BDAE3682BB336
:10248000C6E900000BE04B6923B10B6929681A69A2
:1024900091420DDC2A4639463046FFF78FFF304621
:1024A000BDE8F0810023C0E900233046BDE8F0819B
:1024B00000223046C6E90023BDE8F081C0E90033C0
:1024C0003046BDE8F081C6E90030E8E7C6E90034EF
:1024D000E5E700BF91426BD02DE9F04F0C4687B085
:1024E0009346814600F1040A14E01B782B774FF0E5
:1024F000000E5346AE613A46294640460CF806E0C7
:1025000014F036FCD9F814300133C9F814301C34F7
:10251000A3454AD023465246494604A8FFF786FF02
:10252000059F002FF3D0A7EB0A08049BB8FA88F8A0
:102530004FEA5818002B18BF48F00108B8F1000FF7
:102540002AD02C2014F0ABFBA66800F11C0C054629
:10255000D4E90023F342C0E9042C00D04BB30F2E82
:10256000039604D8012EC0D0002EC0D00BE000226C
:1025700003A905F11400019314F06AFC039A844640
:10258000019B6861EA6132466046194615F042F9DE
:10259000039ED5F814C0AAE722683B699A42ACBFF3
:1025A0004FF000084FF00108CBE707B0BDE8F08F0F
:1025B0007047014814F03AFC30A80108F0B51746FE
:1025C00083B005462C200E4614F069FB39680023C1
:1025D000324600F11C060968044683610161294600
:1025E000037700F1100346616846FFF71FFFDDE93E
:1025F0000072A2B12B1D4FB10120214614F0B8FB8F
:102600006B69204601336B6103B0F0BD9A42F3D091
:10261000206911698842ACBF00200120EDE76069A4
:10262000864203D0E169013114F037FB20462C21AA
:1026300014F033FB384603B0F0BD00BF2DE9F04184
:10264000154682B007462C200E4614F028FB2B6856
:1026500000F11C086A680446036105F10C03C0F828
:1026600014809A423CD04261EA68C261AA6831464D
:102670006B600023A261684604F110022B73AB600B
:10268000FFF79CFEDDE90052C2B1331D6DB10120A0
:10269000214614F06DFB7369012238463C601344F7
:1026A0003A71736102B0BDE8F0819A42EFD02069BF
:1026B00011698842ACBF00200120E9E760698045CC
:1026C00003D0E169013114F0E8FA20462C2114F01E
:1026D000E4FA002338463D603B7102B0BDE8F0816A
:1026E000EA68C2615A68C8F804209A68C8F80820E5
:1026F000DA68C8F80C20B9E770B501238AB000F198
:102700002006054605AC04930993432301A803AAB8
:1027100031460394ADF81430FFF7E0FD0398A04272
:1027200003D00599013114F0B8FA022301A803AAD5
:1027300031460493099342F243330394ADF81430C5
:1027400000238DF81630FFF7C9FD0398A04203D08F
:102750000599013114F0A1FA012301A803AA314619
:10276000049344230394ADF8143003230993FFF733
:10277000B5FD0398A04203D00599013114F08DFAFC
:1027800046F2452303AA31460394ADF814300223E0
:10279000049300238DF8163004230DEB03000993F6
:1027A000FFF79CFD0398A04203D00599013114F076
:1027B00074FA012301A803AA314604934523039424
:1027C000ADF8143005230993FFF788FD0398A04264
:1027D00003D00599013114F060FA012301A803AA7E
:1027E0003146049346230394ADF81430062309932D
:1027F000FFF774FD0398A04203D00599013114F04E
:102800004CFA42F2463301A803AA3146ADF814301F
:1028100002230394049300238DF8163007230993B1
:10282000FFF75CFD0398A04203D00599013114F035
:1028300034FA012301A803AA3146049347230394E1
:10284000ADF8143008230993FFF748FD0398A04220
:1028500003D00599013114F020FA42F2473301A860
:1028600003AA3146ADF814300223039404930023E5
:102870008DF8163009230993FFF730FD0398A04225
:1028800003D00599013114F008FA012301A803AA25
:102890003146049341230394ADF814300A2309937D
:1028A000FFF71CFD0398A04203D00599013114F0F5
:1028B000F4F946F2422301A803AA3146ADF81430D8
:1028C00002230394049300238DF816300B230993FD
:1028D000FFF704FD0398A04203D00599013114F0DD
:1028E000DCF9012301A83146039404934223ADF897
:1028F00014300C230DEB03020993FFF7EFFC039850
:10290000A04203D00599013114F0C7F901233835ED
:1029100006AC01A8039303AA059343232946049414
:10292000ADF81830FFF78AFE0498A04203D006994C
:10293000013114F0B2F9022301A803AA2946059334
:10294000CDE9033400238DF81A3042F24333ADF859
:102950001830FFF773FE0498A04203D006990131A6
:1029600014F09BF9032301A803AA2946CDE90334F7
:10297000012305934423ADF81830FFF75FFE049858
:10298000A04203D00699013114F087F9042301A86D
:1029900003AA2946CDE9033446F24523ADF81830A1
:1029A0000223059300238DF81A30FFF747FE0498A1
:1029B000A04203D00699013114F06FF9052301A854
:1029C00003AA2946CDE90334012305934523ADF835
:1029D0001830FFF733FE0498A04203D00699013166
:1029E00014F05BF9062301A803AA2946CDE90334B4
:1029F000012305934623ADF81830FFF71FFE049816
:102A0000A04203D00699013114F047F9072301A829
:102A100003AA2946CDE9033442F24633ADF8183013
:102A20000223059300238DF81A30FFF707FE049860
:102A3000A04203D00699013114F02FF9082301A810
:102A400003AA2946CDE90334012305934723ADF8B2
:102A50001830FFF7F3FD0498A04203D00699013126
:102A600014F01BF9092301A803AA2946CDE9033470
:102A700042F24733ADF818300223059300238DF856
:102A80001A30FFF7DBFD0498A04203D0069901310C
:102A900014F003F90A2301A803AA2946CDE9033457
:102AA000012305934123ADF81830FFF7C7FD0498C3
:102AB000A04203D00699013114F0EFF80B2301A8CE
:102AC00003AA2946CDE9033446F24223ADF8183073
:102AD0000223059300238DF81A30FFF7AFFD049809
:102AE000A04203D00699013114F0D7F80C2301A8B5
:102AF00029460DEB030203930123CDE9044342234E
:102B0000ADF81830FFF79AFD0498A04203D006995B
:102B1000013114F0C2F80AB070BD00BF000000001F
:102B2000654AD2E900312DE9F043C91A044685B05F
:102B300018468910614DFEF785FF614A6D7F0023BD
:102B4000126804F10C0104F13C07261D52F8202004
:102B50002046A360B8461544237384F82430A3624A
:102B6000013D636384F83C30EDB22364E36404F117
:102B700024036160C4E90B33C4E91177FFF7BCFD9E
:102B8000504B6577A3FB0523DB0803EB4303A5EB61
:102B90008305236C0135EDB2A577002B3AD0196976
:102BA0008D42D3E902025EDD1346002BF7D1474583
:102BB00030D0D8F810309D422CDB08F1140130469B
:102BC00014F0A0F9637F3F4A30463F49A2FB03233C
:102BD000DB08013B237714F07BFA002848D0A37F61
:102BE000B1EE005B227F2046013B07EE102A06EE85
:102BF000903AB8EEC77BB8EEE66B9FED2D4BA6EE94
:102C0000047B37EE457BB7EEC77B84ED007A05B0D9
:102C1000BDE8F0832C20CDF8048014F040F80023A8
:102C200000F11C09056183618046037704F13801D6
:102C3000019A00F11003C0F8149002A8FFF7F6FB08
:102C4000DDE90252E2B1281E18BF0120974208BFF9
:102C500040F0010018B33B46414614F089F8E36C9C
:102C60000133E364A9E798460346002B97D19EE71A
:102C70009FED167A204684ED007A05B0BDE8F0831A
:102C8000D8F81400814504D0D8F81C10013114F094
:102C900004F840462C21A84613F0FFFF8DE7D8F832
:102CA000100013699842ACBF00200120D3E700BF99
:102CB000F792C6681D55B53F142600249C0B0024CE
:102CC00020260024ABAAAAAA0CA901080000000033
:102CD00030B5464895B003F055FDB7EE001ADFED6C
:102CE000440A00214348B0EE410A02F075FBB7EEFA
:102CF000001ADFED3F0A01213E48B0EE410A02F022
:102D00006BFBB7EE001ADFED3A0A02213948B0EE4C
:102D1000410A02F061FBB7EE001ADFED350A03212C
:102D20003448B0EE410A02F057FB324802F05AFB39
:102D300015F090FC304B054668461C6895FBF4F393
:102D400003FB14552D4CFFF7EBFE009B05EB8505AF
:102D500001A904EB051004460430236014F0D2F8F6
:102D60009DF81E20BDF81C3004F12000A27708A9B0
:102D7000A383FEF76FFC04F138000EA9FEF714FEE2
:102D8000109C9CB12546E068FEF790F9A46868693C
:102D900005F11C03984203D0E969013113F07DFF6E
:102DA0002C21284613F079FF002CEBD10A9C9CB112
:102DB0002546E068FDF780FFA468286905F118033F
:102DC000984203D0A969013113F067FF2C212846EE
:102DD00013F063FF002CEBD1019803AB984203D0B2
:102DE0000399013113F059FF15B030BD14A9010842
:102DF00000000000940800243C000024180C00246B
:102E000000232DE9F04F836000F1240A037385B09D
:102E100080F82430D6B2836200F1040B4363054688
:102E200080F83C300364C36400F13C0301910096D8
:102E3000C0E9113300F10C03C0E90BAA4360FFF7AE
:102E40005BFC0199584614F05DF8AC6A2E77002CB3
:102E500056D0D146D5E9018766694146BE42324621
:102E600028BF3A461AB1206914F0C4FC00B9F01B1F
:102E70000028D4E9022150DBA1461446002CEBD1F6
:102E8000CA453ED0D9F81440BC42224628BF3A4633
:102E90002AB14046D9F8101014F0ACFC00B9381B28
:102EA00000282EDB009B5846254903F1010899F8BC
:102EB000283008EB4808AB7703EB880808F1FF38A7
:102EC00085F81D8014F004F958B3AB7FB1EE005BB8
:102ED0002A7F2846013B07EE102A06EE903AB8EE0C
:102EE000C77BB8EEE66B9FED144BA6EE047B37EE86
:102EF000457BB7EEC77B85ED007A05B0BDE8F08F66
:102F0000D146494603AA05F12000CDF80CB0FFF7E1
:102F100081F82B7F81460093C4E70C46002C9BD19F
:102F2000AEE79FED087A284685ED007A05B0BDE84A
:102F3000F08F00BFAFF30080F792C6681D55B53F14
:102F40000CA90108000000002DE9F04FB548B64E6D
:102F50002DED028BB3B003F015FCB7EE001A002183
:102F6000B248F0EE410AB0EE410A02F035FAB7EE8F
:102F7000001A0121AD48F0EE410AB0EE410A02F01C
:102F80002BFAB7EE001A0221A848F0EE410AB0EE83
:102F9000410A02F021FAB7EE001A0321A348F0EE2D
:102FA000410AB0EE410A02F017FAA04802F01AFAFC
:102FB0009F49B3680D78002B00F0938404363146A6
:102FC0001A699542D3E9024040F32B820346002B55
:102FD000F6D1B14200F085840B699D42C0F2818434
:102FE000944F1431384613F08DFF934B9C68002C9E
:102FF00000F0778403F10408D7E900A94646656923
:103000004D452A4628BF4A4622B15146206914F050
:10301000F1FB08B9A5EB09000028D4E90232C0F29F
:10302000068226461C46002CE9D1464500F059840C
:1030300074694C45224628BF4A46002A00F0EF80BA
:103040005046316914F0D6FB002800F0E8800028D3
:10305000C0F2478406F128017848FDF79BFD784BC4
:103060009C68002C00F03D8403F10408D7E9009629
:1030700047466569B5422A4628BF324622B14946CD
:10308000206914F0B7FB00B9A81B0028D4E902326C
:10309000C0F2D28127461C46002CEAD1474500F0F9
:1030A00020847C69B442224628BF3246002A00F0C0
:1030B000B4804846396914F09DFB002800F0AD80CB
:1030C0000028C0F20E8407F128015E48FDF762FD7A
:1030D0005D4C00235D495E4A04F11C0904F1340A89
:1030E0001E460B601370002E40F0C2800121594B28
:1030F000032259481A6001601EA80DF17C0BFFF7EE
:103100000FFD1E9B5946204644F8043C13F0FAFE7E
:103110009DF89430514D26A9237648469DF8953068
:1031200063769DF89630A376FEF794FA2CA9504664
:10313000FEF73AFC28461E9B594640F8043B13F024
:10314000E1FE9DF8963026A905F12000AB77BDF889
:103150009430AB83FEF77EFA2CA905F13800FEF718
:1031600023FC2E9FAFB1B846F868FDF79FFFBF68FC
:10317000D8F8140008F11C03984204D0D8F81C10A9
:10318000013113F08AFD2C21404613F086FD002FFB
:10319000E9D1289FAFB1B846F868FDF78DFDBF684B
:1031A000D8F8100008F11803984204D0D8F8181085
:1031B000013113F072FD2C21404613F06EFD002FFB
:1031C000E9D11F9821AB984203D02199013113F026
:1031D00064FD54F8043C214621482B6013F092FE14
:1031E000277E4946627EA37E1E482F776A77AB779B
:1031F000FEF730FA51461C48FEF7D6FB50341B4B05
:10320000013609F15009A3420AF1500A7FF46BAF6D
:1032100033B0BDEC028BBDE8F08F301B50E7A9EB5B
:10322000040014E734A901080808002494080024C5
:1032300038000024D8070024200800242026002479
:1032400038080024142600241C0C0024340B00240D
:103250009A0B0024280B00242C0B0024480B00247C
:103260004C0B0024680B0024800B00241C16002447
:1032700015F0F0F9794A6421794D82FB0032C317C9
:10328000C3EB621301FB130007EE900A95ED006B90
:10329000B8EEE77BB4EEC67BF1EE10FA7DD50023E5
:1032A00027A970482DAADFF8D0C11AAF04250DF167
:1032B0008408036018A82A910DF17C0B18978DF8EB
:1032C0006C308DF884308DF89C302B938DF8B430B1
:1032D000CDE928316449CDE9195CCDE91F83CDE9F9
:1032E0002E32CDE9302313F0F3FE0146002800F022
:1032F000A8801898B84203D01A99013113F0CDFC78
:103300001E9B5946204644F8043C13F0FBFD9DF8F3
:1033100094509DF8952026A99DF89630484625762C
:103320006276A376FEF796F92CA95046FEF73CFB91
:103330002E9D9DB12F46E868FDF7B8FEAD6878690F
:1033400007F11C03984203D0F969013113F0A5FC81
:103350002C21384613F0A1FC002DEBD1289D9DB106
:103360002F46E868FDF7A8FCAD68386907F1180337
:10337000984203D0B969013113F08FFC2C213846F3
:1033800013F08BFC002DEBD11F9840453FF436AF76
:103390002199013113F081FC30E7344F0121D7E945
:1033A0000053D7E902021D442E4B284419608518AA
:1033B00015F050F93946002390FBF5F202FB150099
:1033C00004E00133801A042B00F0908251F8042BA2
:1033D0008242F6DD264A13604BB1022B4ED0012B00
:1033E00000F02C81032B3FF487AE224DF1E6214DF6
:1033F0002046294651F8043B44F8043C13F082FD72
:103400002F7F6A7F05F12001AB7F484627766276E1
:10341000A376FEF71FF905F138015046FEF7C4FA0E
:10342000D7E619462346002B7FF4CAADD1E51446F2
:10343000002C7FF4E4ADF8E51446002C7FF419AEBF
:103440002CE602905846084B209A009513F0C2FDD6
:103450000299ADF894508DF896104AE71F85EB510C
:10346000300000242C0B00240CA9010814000024B7
:10347000280B0024480B0024726573746B4F6C4D4D
:10348000796805F11E023868FDF7EEFA3A6895F89A
:103490001CB0801A8310013B05D57B680BF1FF3B04
:1034A0009B1A9B10013B52F823202B6C0492002B9B
:1034B00000F01A82DFF880C1964661469A68D3E927
:1034C0000370864540F3AC803B46002BF6D1614546
:1034D00002D00B699E4506DA04AB1EAA55481E931E
:1034E000FFF76CF8014608AB0693D1E90573DF429C
:1034F00002D0002F00F017820F2B1E9300F2AB8139
:10350000012B40F08C813A7808A98DF82020002208
:103510000793CA540EAB0C93DDE90637FB4202D089
:10352000002B00F000820F2F1E9700F27D81012FEB
:1035300040F06A811B780DF1380C0DF178088DF898
:1035400038300CAB08EE103A00230D975A4618EEAF
:10355000101A0CF807304046FFF752FC0C980EABDF
:10356000984203D00E99013113F097FB1E9B1FA9BF
:10357000204644F8043C13F0C5FC9DF895309DF8B6
:10358000942026A9637648469DF896302276A37645
:10359000FEF760F82CA95046FEF706FA2E9FAFB151
:1035A000B846F868FDF782FDBF68D8F8140008F146
:1035B0001C03984204D0D8F81C10013113F06DFBA5
:1035C0002C21404613F069FB002FE9D1289FAFB1B1
:1035D000B846F868FDF770FBBF68D8F8100008F12E
:1035E0001803984204D0D8F81810013113F055FB95
:1035F0002C21404613F051FB002FE9D11F9821AB3D
:10360000984203D02199013113F047FB069808AB8B
:1036100098423FF4DEAD0899013113F03EFBD8E546
:1036200019461346002B7FF449AF50E720260024AB
:10363000480B0024800B0024840B0024AE4FAF4DB8
:10364000796805F11E023868FDF70EFA95F81CB08E
:10365000D7E90031C01AC91A82100132B2EBA10FAA
:1036600080F2C8800430034419682B6C0591002B4C
:1036700000F0C880DFF88CC2E6469A68D3E9037090
:10368000814240F3B1803B46002BF6D1E6457246BD
:1036900003D0DEF81030994207DA05AB114698489E
:1036A0001EAA1E93FEF78AFF024614AB1293D2E9BC
:1036B0000573DF4202D0002F00F035810F2B1E93DF
:1036C00000F2FE80012B40F0E0803A788DF8502027
:1036D00014AA002113931AAFD154129B18971A46BB
:1036E0000293139BDA4202D0002A00F01C810F2BB8
:1036F0001E9300F2CE80012B40F0BE80029ABC46A1
:103700000DF1780812788DF8682018AA08EE102AB2
:103710004FF0000E19935A4618EE101A40460CF856
:1037200003E0FFF76DFB1898B84203D01A990131F6
:1037300013F0B3FA1E9B1FA9204644F8043C13F073
:10374000E1FB9DF895309DF8942026A963764846C4
:103750009DF896302276A376FDF77CFF2CA9504683
:10376000FEF722F92E9FAFB1B846F868FDF79EFC30
:10377000BF68D8F8140008F11C03984204D0D8F8A8
:103780001C10013113F089FA2C21404613F085FA00
:10379000002FE9D1289FAFB1B846F868FDF78CFA41
:1037A000BF68D8F8100008F11803984204D0D8F880
:1037B0001810013113F071FA2C21404613F06DFA04
:1037C000002FE9D11F9821AB984203D021990131F4
:1037D00013F063FA129814AB98423FF4FAAC1499C0
:1037E000013113F05AFAF4E49E461346002B7FF49D
:1037F00044AF4BE719680BF1010B2B6C0591002BC3
:103800007FF438AF3F4A48E7002F40F085800CAB8B
:103810000DF1380C0DF1780808EE103A94E6002B03
:1038200040F08D8008A972E602930DF178080CAB88
:1038300000224146184608EE103A13F009FB1E9A82
:10384000029B0C900E923A46194613F0E3FF1E9F1E
:10385000DDF830C078E600221EA906A8029313F016
:10386000F7FA1E9A029B069008921A46394613F000
:10387000D1FF1E9B06994AE6002B59D118AABC46D7
:103880000DF1780808EE102A42E7002B4ED114AA59
:103890001FE703930DF1780818AB00224146184644
:1038A00008EE103A13F0D4FA1E9A039B18901A925D
:1038B0001A46029913F0AEFF1E9BDDF860C027E7A1
:1038C00000221EA912A8029313F0C2FA1E9A029BAC
:1038D000129014921A46394613F09CFF1E9B129ABE
:1038E000F7E6094813F0A8FA0649F5E5074B132156
:1038F000074A084813F0FEFE20260024480B002447
:10390000800B0024840B0024E4A801085CA80108B3
:1039100084A80108A4A801080CAA0EA80DF1780833
:1039200008EE102A8FE7074813F080FA14A8D1E7B1
:1039300018AA38460DF1780808EE102AB8E708A84A
:1039400093E700BF30A801082DE988480020C54C46
:1039500014F012FFB6EE008A14F04EFE0021C248A9
:1039600001F00CFC002002F01BFFBF4801F00EFD2F
:10397000BE4802F007FFB7EE001A9FEDBD0A002116
:10398000B948F0EE410AB84D01F026FDB7EE001A35
:103990009FEDB70A0121B448F0EE410ADFF844B3C5
:1039A00001F01AFDB7EE001A9FEDB10A0221AE48F0
:1039B000F0EE410ADFF830A301F00EFDB7EE001A79
:1039C00003219FEDAB0AA848F0EE410ADFF81C93F3
:1039D00001F002FDA44801F005FDA34801F0C8FA7A
:1039E00084ED000AFFF7B0FAA24AA349002394ED40
:1039F000000A1268A14812F06BFEA04AA04B94ED99
:103A0000000AA04882ED008A936082ED038A12F0DA
:103A10009FFFB0EE480A9B4813F038F894ED000A77
:103A2000994813F073F898489FED910A13F0BEF887
:103A3000B0EE480A944813F0D5F894ED000A934884
:103A400013F0D4F8B0EE480A904813F009F98F4803
:103A50009FED870A13F018F9DFF89482B0EE480A58
:103A60008A488B4F13F00CF98A4E28468A4C8B49B2
:103A700001F08AFC7C4801F08DFC894802F030FF9F
:103A8000794801F0AFFC95F8703223B195F87632A1
:103A90007F2B00F06781834803F0DAFB002840F0B9
:103AA000CD800123804A1370804A1370804803F050
:103AB000CFFB002840F0958001237E4A05216A480B
:103AC0001370BFEE008A7C4AF0EE008A136001F0AA
:103AD0009DFC7A4B0621644883ED000A01F096FCB8
:103AE000684813F00BF803215F4801F08FFC744B1A
:103AF00006215D4883ED000A01F088FCF0EE487A6B
:103B00006148E0EE287AB0EE670A13F04FF805211D
:103B1000554801F07BFC5C4813F064F806215248DC
:103B200001F074FCA0EE288A5848B0EE480A13F061
:103B3000A7F84D48052101F069FC544813F0A4F89A
:103B40000021494801F062FCDFED5E7A0121464820
:103B500020EE270ABAFE400ABDEEC00A8BED000A2D
:103B600001F054FCDAED057AB7EE005B02213E4825
:103B7000B8EEE76B85EE067BB7EEC77BC0EE077A43
:103B8000FAFE677AFDEEE77A17EE903A89F8003090
:103B900001F03CFC9FED4C7A04213348C0EE077ADB
:103BA000FAFE677AFDEEE77A17EE903A88F8003071
:103BB00001F02CFC9FED457A2B48A0EE477AB7EE3A
:103BC000C77A87ED007B01F0F1FB307038B12078C7
:103BD00028B93F4802F0D6FDFFF7B6F930782070DB
:103BE00048E73C4803F034FB314803F031FB002840
:103BF00000F08080374803F02BFB00287AD02D4A54
:103C0000002303211848137001F000FC9FED2F8A58
:103C100005212B4B144883ED000A01F0F7FB20EE41
:103C2000080A2D4B0621104883ED000A01F0EEFB37
:103C300020EE080A294B83ED000A81E7284803F0AB
:103C400007FB184803F004FB00287AD0244803F04F
:103C5000FFFA002875D00123134A13700023134A7A
:103C6000137023E7EC0B0024940800244CA90108EE
:103C7000000000004000002418160024B82500248D
:103C8000C3F5A83E70080024F00B00242C26002465
:103C90003000002411260024990B002471430008F1
:103CA000000B0024170B00240E0000240400002445
:103CB0001F0B0024380B0024140C00246C08002473
:103CC00090080024000000420AD7A33C0000C8422C
:103CD00070A90108230B00242400002410000024F4
:103CE0001B0B00243C00002408080024380000249A
:103CF000280000241E4803F0ABFA00283FF420AF50
:103D00001C4803F0A5FA00287FF41AAF1A4B0521CE
:103D10001A4A186001231A48137001F077FB194BF7
:103D20000321174883ED000A01F070FB154B0621B3
:103D3000134883ED020A01F069FB124B83ED030A7D
:103D4000FEE6114803F084FA00283FF4AFAE0F48B6
:103D500003F07EFA00287FF4A9AE0D4B18700D4BCE
:103D60001870A3E60C4802F00DFDFFF7EDF892E69F
:103D70001F0B0024230B0024140C0024380B0024F8
:103D800094080024B8250024170B00241B0B0024E2
:103D90000E0000240400002460A9010800000000B7
:103DA0002DE9F04FB44D00242DED048B99B09FED1B
:103DB000B31A2146B2480134F0EE410AB0EE410A8E
:103DC00001F00AFB284602F063FD042C05F15405BE
:103DD000EDD1AC4B1B7806EE903AAB4B1B78F8EE6E
:103DE000666A07EE103AA94BB8EE477A9FEDA05BE2
:103DF000C6EE877A77EEA77AB7EEE76AB4EEC56BC0
:103E0000F1EE10FA00F1F080DFF8A482C3ED007A41
:103E100098F80010002900F0F0809D4A1278002ADE
:103E200040F0F7809B4A1278002A40F03C8293EDE4
:103E3000001ADFF88092924CDFED970A9FED970A07
:103E400099F80010204601F0C7FA99F800005423B1
:103E500003FB00403C3002F01BFD99F800300DF1EF
:103E60001C0A98F8006001338D4D06EB8602CDF8F0
:103E700014A0DBB205EB0212032B174688BF002308
:103E800089F8003013680493D2E90134B200E342A8
:103E9000019202D0002B00F038820F2C039400F224
:103EA000D180012C40F0C7801B7852460DF1140BD5
:103EB0008DF81C30B3000DA90694334405EB0315AF
:103EC000002313558DF834300E931193AB7FB86AED
:103ED0008DF82E30CDE90F11AB8BADF82C3080B1C1
:103EE000FDF758F803461A469B68002BFBD10346A2
:103EF0000F921A46DB68002BFBD17B6B10920E9061
:103F00001193002313A9386C8DF84C301493179338
:103F1000CDE9151180B1FCF7B1FF03461A469B6845
:103F2000002BFBD1034615921A46DB68002BFBD110
:103F3000FB6C16921490179358465A4913F0C8F820
:103F4000002840F0BD8098F80030574A01331268CD
:103F5000DBB2934288F800300EDB4D4B1B78002B10
:103F600040F03F814B4B1B78002B40F068810023D1
:103F700088F8003089F80030149C9CB12546E06830
:103F8000FDF794F8A468686905F11C03984203D012
:103F9000E969013112F081FE2C21284612F07DFEE4
:103FA000002CEBD10E9C9CB12546E068FCF784FE0A
:103FB000A468286905F11803984203D0A969013162
:103FC00012F06BFE2C21284612F067FE002CEBD17C
:103FD0000598504503D00799013112F05EFE19B0E3
:103FE000BDEC048BBDE8F08FDFF8C4802F4A98F851
:103FF00000101A6000297FF410AF9FED201AF7EE31
:10400000000A1F48B0EE410ADFF8A89001F0E4F979
:1040100023E7204A1278002A3FF409AFDFF8949092
:10402000174CDFED160A93ED001A2046B0EE600A39
:1040300099F8001007E7002C40F0638152460DF11B
:10404000140B37E70DF1140B002203A90193584616
:1040500012F0FEFE039A019B059007922246194634
:1040600013F0D8FB039C059A24E700BFAFF3008050
:104070009A9999999999C93FD008002400000000A5
:10408000940800249A0B002428000024D40700245C
:10409000040000240E0000247B142E3E0AD7233E89
:1040A000180C00240CA901083C000024CDCC4C3E87
:1040B000600800245008002400008A420000DC430D
:1040C0009DF82D30F2EE088A1FED059AB0EE000A39
:1040D00000EE903A1FED078A8D4CF1EE009AF8EE53
:1040E000600A70EEC90AC0EEA80A13F011F88949F7
:1040F00089484FF07E530B6020EE080A80ED010ADC
:1041000012F054FB9DF82D30B0EE000A00EE903A0C
:10411000F8EE600A70EEC90AC0EEA80A12F0F8FFC5
:104120007E4820EE080A12F0CDFC9DF82D30B0EE4E
:10413000000A00EE903AF8EE600A70EEC90AC0EE8E
:10414000A80A12F0E5FFD4ED007A744820EE080AC0
:1041500020EE270A20EE290A12F098FC9DF82D3057
:10416000B0EE000A00EE903AF8EE600A70EEC90A6E
:10417000C0EEA80A12F0CCFFD4ED007A684820EE19
:10418000080A20EE270A20EE290A12F069FD9DF8A0
:104190002D30B0EE000A00EE903AF8EE600A70EEB4
:1041A000C90AC0EEA80A12F0B3FF5D4820EE080A63
:1041B00012F046FD9DF82D30B0EE000A00EE903A68
:1041C000F8EE600A70EEC90AC0EEA80A12F0A0FF6D
:1041D000544820EE080A12F0D1FC534B049A1A609E
:1041E000B1E6524A137814460133137014F032FAD0
:1041F00023784F4A06EE903A4E4B9FED4F6A1B785C
:10420000F8EE666A07EE903A82FB0032C317F8EECA
:10421000677AC3EB6213642286EEA77A02FB13006F
:1042200007EE900AF8EEE77A27EE067AF4EEC77A00
:10423000F1EE10FA7FF596AEFEF786FE97E614F0E3
:1042400009FA3B4C3D4B642593ED007A84FB003228
:10425000C317C3EB621305FB130007EE900AF8EED9
:10426000E77AF4EEC77AF1EE10FA30D5344B1B78CA
:10427000A3B9344B1B7833BB14F0ECF984FB003446
:10428000C317C3EB641305FB1300312815DC2E4B59
:104290002E4A1B7812685B42934214DA4FF0FF30CB
:1042A000FDF742FF63E693ED001ADFF8BC90284C5F
:1042B000DFED280A9FED280AC2E5284A234B127831
:1042C0001B689A42EADD0120FDF72EFF4FE614F04D
:1042D000C1F984FB0034C317C3EB6414204B05FB06
:1042E000140093ED007A07EE900AF8EEE77AF4EE08
:1042F000C77AF1EE10FA7FF53AAE0120FEF7E8FC3E
:1043000035E650460DF1140BA8E6164812F08EFD66
:104310006C080024EC250024B82500247008002433
:104320002C260024F00B0024640800249A0B00249F
:104330001F85EB512800002400004842240000247F
:1043400068080024122600240C000024340B0024EA
:1043500094080024C3F5A83E000000000D000024CE
:104360001000002430A801085008002400000000BC
:104370002DE9F8431746002A00F09D8003680E4699
:10438000002503EB8202F6EE007AB3EC017AB4EE7C
:10439000677AF1EE10FAC8BF01259A42F3D14C4C6E
:1043A000DFF8688125701DB198F80050002D3DD0D0
:1043B000002488F80050DFF85891DFF8588125462E
:1043C00017E0444A8C461B68434811465BBB434890
:1043D000C2F800C012F0EAF90135D6E90023AF4275
:1043E0002244234404F1040482ED000A83ED000A10
:1043F00017D0502398F80000394903FB009004308F
:1044000012F066FE374B00210028DAD10135D6E9DB
:104410000023AF422244234404F1040411601960D4
:10442000E7D1BDE8F88312F0A1FAD5E704F088F8E7
:1044300007EE900A2C4BB8EE676B2C492C4A2D489E
:1044400093ED005B83ED006B0B6836EE455B01334B
:1044500092ED007B04EE903A062B0B6035EE077B65
:10446000B8EEE42B9FED183B87EE024B82ED007B0C
:1044700090ED007A2048B7EEC77A80ED006B1F48B8
:1044800080ED005B1E4884EE036B80ED004B1D4801
:1044900027EE067B80ED006B1B48B7EEC77B80EDF7
:1044A000007A04DD00200D600021C2E90001FFF761
:1044B00077FC25787CE7064A144B17701F70BDE81F
:1044C000F88300BFAFF300800000000080842E411D
:1044D00010260024EC25002470080024B8250024B0
:1044E0000CA90108140C0024400B0024300B0024FC
:1044F000F82500249008002458080024F025002402
:10450000002600240826002408000024980B00241C
:10451000180C0024600800242DE9F04F8C6883B04B
:104520008B4681460192A4B3019BD3E900A800E029
:1045300014466669454627695046B045394628BF46
:1045400035462A4615B113F055F908B9A8EB06000F
:104550000028D4E90212AEBF00210A460121002A38
:10456000E6D1B9B9A3468DB12A465146384613F073
:1045700041F958B100284FF000034846B4BFC9E9DB
:10458000003BC9E9004303B0BDE8F08FA6EB08008B
:10459000F0E70C1DDBF80C30A3420ED02046A346FA
:1045A00012F0E4FB019B0446D0E90476D3E900A8AD
:1045B0003546464528BF4546D5E700234846C9E964
:1045C000003403B0BDE8F08F2DE9F04F1F460B1DFE
:1045D00083B00E469A4205464DD01446D7E900B83E
:1045E000D2E90419C246C84528BFCA46BAF1000F2D
:1045F0001CD052465846019113F0FCF8002801994E
:1046000002D1A8EB0903002B14DB08465246594699
:1046100013F0F0F808B9A9EB0800002850DB0023DC
:10462000C5E90043284603B0BDE8F08FA8EB0903B5
:10463000002BF0DAF368A34217D0204612F096FB65
:10464000D0F814A08146C245524628BF424622B146
:104650005946006913F0CEF808B9AAEB0800002803
:1046600025DAD9F80C30002B4BD02846C5E9004498
:1046700003B0BDE8F08F4B69CBB10C69D7F804806B
:10468000D4F81490C1454A4628BF424622B1396841
:10469000206913F0AFF808B9A9EB0800002806DA82
:1046A00000232846C5E9003403B0BDE8F08F284652
:1046B0003A463146FFF730FF284603B0BDE8F08F99
:1046C0003369A342ECD0204612F04EFBD0F814A080
:1046D0008146C245524628BF424662B15846D9F883
:1046E000101013F087F830B10028E0DAE3682BB13E
:1046F000C5E9009996E7A8EB0A00F5E7C5E900349B
:1047000090E7C5E900398DE7914200F094802DE9EA
:10471000F04F0D4687B09246804600F104092AE02A
:10472000484B9B4500F28B80584612F0B8FA03467E
:10473000D5E9061CACEB010203EB0B008C452063B2
:10474000C4E90A3305D01846019213F071F8019AB2
:10475000034603EB020C21464B463A463046C4F86A
:104760002CC012F005FBD8F814300133C8F814300F
:104770002435AA455CD02B464A46414604A8FFF79B
:1047800023FF059F002FF3D0A9EB0706049BB6FA81
:1047900086F67609002B18BF46F00106002E38D0A9
:1047A000342012F07CFA04461830D5E900B32061B9
:1047B0001BEB030F02D0BBF1000F3DD00F2B039377
:1047C00015D8012B10D19BF80020227600226361BE
:1047D000C2542263D5E9061CC4E90A22BCEB010BD2
:1047E0009ED15A465B46A7E7002BEFD00AE0002295
:1047F00003A904F11000019312F02AFB039A019B14
:104800002061A2611A46594613F004F8039B2069FF
:10481000DCE76E687C693246A64228BF224622B198
:104820003969286812F0E6FF00B9301BC60FB7E7F8
:1048300007B0BDE8F08F7047034812F0F7FA12F0A6
:10484000F2FA00BFFCFFFF7F30A801080000000063
:104850002DE9F04FADF50F7D0123C24959A85893BA
:10486000FCF766F90223C04960A85F93FCF760F982
:104870000323BE4967A858AC6693FCF759F9042393
:10488000BB496EA882AD6D93FCF752F90523B94977
:1048900075A87493FCF74CF90623B7497CA87B9361
:1048A000FCF746F9B54800232146021D03718360D9
:1048B0004361C0E903222A46FDF70CFE1C3D281D7A
:1048C00012F0E8FAA542F9D1AD4D4FF00709AD4A13
:1048D0000DF14808AC490DF1700BA84810AF12F06B
:1048E000D7F90DF5A27C0DF1780ECDF87C90CDF8BE
:1048F00078C00EAE4FF0050A0FCDACE80F0095E87A
:10490000070043468CE807009EE806002FA8FDF745
:10491000C7F82FAA93492046FDF7F0F805F10C0ED1
:104920000DF5947CBEE80F00CDE91CC9ACE80F0082
:104930009EE807003B468CE807009BE806002CA891
:104940000DF1680BFDF7ACF82CAA874961A8FDF7BB
:104950000FF905F1280E0DF5867CBEE80F00CDE9B4
:104960001AC9ACE80F009EE8070033468CE8070040
:104970009BE8060029A80DF1600BFDF791F829AA24
:104980007A496AA8FDF72EF937AB05F1440E9C462B
:10499000CDE9183ABEE80F00ACE80F00DEF80030B1
:1049A00026A8CCF800300CAB9BE80600FDF778F8A1
:1049B00026AA6F4973A8FDF74FF932AB05F1580CE1
:1049C000CDF85CA016939A460DF1580E6C35BCE8F4
:1049D0000F00AAE80F00DCF8003023A89EE80600CC
:1049E000CAF800300AABFDF75BF823AA61497CA83E
:1049F000FDF732F90DF1F00C0DF1500ECDF8549099
:104A0000CDF850C00FCDACE80F0095E8070008AB1B
:104A10008EAD8CE807009EE8060020A8FDF740F860
:104A200020AA554985A8FDF751F9584800238EAAB8
:104A30002146037183604361031DC0E90333FFF71F
:104A400063FE243D05F11800FDF7E2F9284612F057
:104A500021FAA542F5D120A84D4DFDF7D9F923A89B
:104A6000FDF7D6F926A8FDF7D3F929A8FDF7D0F967
:104A70002CA8FDF7CDF92FA8FDF7CAF9414A454901
:104A80004FF0070941484FF0050A12F001F951AB08
:104A9000C8F80490C8F800309C460FCDACE80F0071
:104AA00095E8070007AB8CE8070098E806002FA8F8
:104AB000FCF7F6FF2FAA2B492046FDF71FF84AAB5B
:104AC000A5F1100EC7F804903B609C46BEE80F00AD
:104AD000ACE80F0095E8070006AB8CE8070097E804
:104AE00006002CA8FCF7DCFF2CAA1F4961A8FDF7E3
:104AF0003FF843ABA5F1100CC6F8049033601F4695
:104B0000BCE80F000FC795E8070005AB87E8070072
:104B100096E8060029A805F10C07FCF7C1FF29AAB1
:104B200012496AA8FDF75EF837ABCDF834A00C93B4
:104B30001E460FCF0FC63B680CAA26A805F120071A
:104B4000336004AB06CAFCF7ABFF26AA084973A87A
:104B5000FDF782F832ABCDF82CA00A931E460FCF9A
:104B60000FC619E084A901088CA901089CA90108B5
:104B7000ACA90108C0A90108D4A9010808080024AB
:104B800020A7010800000024F512000820080024D6
:104B9000B8A70108A90C00083B680AAA23A8A5F138
:104BA0001007336003AB06CAFCF77AFF23AABC499F
:104BB0007CA8FDF751F83CABCDF8249008931E4635
:104BC0000FCF0FC695E8070086E8070008AA02ABDA
:104BD00020A88EAD06CAFCF763FF20AAB14985A8BC
:104BE000FDF774F8B04800238EAA21460371836054
:104BF0004361031DC0E90333FFF786FD243D05F142
:104C00001800FDF705F9284612F044F9A542F5D140
:104C100020A8A64DFDF7FCF823A8FDF7F9F826A873
:104C2000FDF7F6F829A8FDF7F3F82CA8FDF7F0F842
:104C30002FA8FDF7EDF89E4A9E4905F520689A4891
:104C400012F026F89C480023994A9C49036043616E
:104C5000036212F01DF81AE0AB7FB1EE005B2A7F11
:104C6000013B07EE102A06EE903A2B46B8EEC77BC2
:104C70005035B8EEE66B45459FED874BA6EE047BBD
:104C800037EE457BB7EEC77B83ED007A37D0002245
:104C900005F124012E1D05F13C0705F10C004FF034
:104CA000040E4FF0010C4FF00209854BCDF8009037
:104CB00029632A7385F824206A6385F83C2085F8E7
:104CC0001CE085F81EC0C5E90102C5E90A2130468D
:104CD0001146C5E91027C5E9127212F07BF93C2391
:104CE000784930466B7712F0F3F90028B4D12B469F
:104CF00050359FED757A454583ED007AC7D1734DE8
:104D000000206B4A724911F0C3FF28467149FBF736
:104D10000FFF674A7049284611F0BAFF6F49704883
:104D2000FBF706FF624A6C496D4811F0B1FF5AA8C3
:104D3000D5E900655890EE4202D0002E00F0F480D4
:104D40000F2D519500F29A80012D40F0908033781C
:104D50008DF86831519B00255899624A59936248F1
:104D6000CD5421461278FEF74BF8204612F092F807
:104D70004F4A5E495C4811F08BFF59495C48FCF78B
:104D8000DFFF01465B48FDF717F8494A5A49594881
:104D900011F07EFF52494448584CFCF7D1FF0146C0
:104DA0005748FDF709F8424A5349554811F070FF3A
:104DB00004F1240204F13C0304F10C01A560201D60
:104DC00061600421A364257384F8245084F83C5066
:104DD000E564C4E90A52C4E90C25C4E91053012270
:104DE00002230093364B21772946A2772A4612F0F8
:104DF000F1F83C233349201D637712F069F900284C
:104E000039D0A37FB1EE005B227F013B07EE102A71
:104E100006EE903AB8EEC77BB8EEE66B9FED1E4B00
:104E2000A6EE047B37EE457BB7EEC77B204A2F49C1
:104E3000324884ED007A11F02BFF1D4A3149324887
:104E400011F026FF1A4A3149314811F021FF314B48
:104E50003148174A3149436111F01AFF144A304969
:104E600030480DF50F7DBDE8F04F11F011BF002D5A
:104E70003FF470AF0AE09FED147AD7E7002251A902
:104E8000204611F0E5FF519B58905A932A4631462F
:104E900012F0C0FC5EE700BFF792C6681D55B53F33
:104EA000C0A90108D4A9010838080024180C00245E
:104EB00000000024A90C000894080024550A0008EA
:104EC000E0A901080CA9010800000000F007002477
:104ED00071120008E4A90108C96F010884A901083A
:104EE000D8070024050000249C0B00242913000887
:104EF0002008002420260024550C0008480B00241C
:104F000014260024590A0008B82500245D0A000868
:104F100070080024CDCC4C3EF00B0024610A000840
:104F2000650A00082C260024014811F07FFF00BF0D
:104F300030A80108FFF78CBC704700BF1F2882B063
:104F400009D8084B03EB400213F81030507843EABD
:104F5000002002B0704701230C2043EA002002B079
:104F6000704700BFE8A90108143001F0FDBA00BF86
:104F7000143001F0F5BA00BF38B500F1140504464D
:104F80002DED028B284601F0DDFA284601F0E8FA03
:104F90002846B0EE408A01F0D1FAD0ED007AF8EE62
:104FA000677A88EE277ABDEC028B84ED0E7A38BDE5
:104FB00008B5143001F0C2FA006808BDF0B503234B
:104FC00099B000270125129306462C4B09A8159588
:104FD000CDE90E7340F20453ADF84030284BCDE9D3
:104FE0001357099302F058F809A802F031F9002884
:104FF00036D1244B04AF04460090CDF84230102344
:10500000394604958DF820301F4BCDE91650CDE977
:1050100006506846059302F0A9FA0823009A01A9F0
:1050200009A8ADF804508DF8064009940295039341
:1050300000F032FA00230EA938463024049303F01E
:105040005FF803224FF07E5309A906F114000B9379
:105050000C93CDE90942049A01F038FA19B0F0BD79
:1050600040F60132074B169704AFADF8242009989B
:10507000CDF84230179500F0CFF9DBE704020404C5
:1050800003030001040604030704010B2DE9F043A8
:1050900004462DED028B83B0002948D0012140F257
:1050A000011200230091ADF804208DF80630304A3B
:1050B0000126304B271D304904F12908626040F277
:1050C0000272A36040F60663E16004F125092682BE
:1050D000A4F8252084F82760A4F8293084F82B60F0
:1050E00003F0A2FB6946054648B304F130008DF891
:1050F000066003F0F7FA072D34D104F114052046B9
:10510000FFF75CFF284601F02BFA2846B0EE408AF4
:1051100001F014FAD0ED007AF8EE677A88EE277A7B
:1051200084ED0E7A03B0BDEC028BBDE8F08340F253
:10513000011300918DF80610ADF80430B7E704F1C3
:10514000300003F0CFFA3946204602F059FC4846B9
:1051500001F0A2FF404601F09FFF04F1120000F0B1
:10516000C5FACAE73946204602F04AFCC5E700BF47
:105170000508050905070506050A06062DE9F04399
:1051800004467B4D002601272DED028BB1B0039123
:10519000FFF7D2FE03992046FFF778FF3021204623
:1051A000FFF7EAFE2046FFF7E3FE2046B0EE408A16
:1051B000FFF7FEFE6F4B07EE900A6F4AF8EE677A34
:1051C0000E950D926D4AC8EE278A0F9293E8030060
:1051D0000B0C10901E20ADF844108DF84630FFF7F0
:1051E000ADFE03469FED660A04F51B70ADF8243052
:1051F000099901F05BFB1820FFF7A0FE012205A929
:10520000ADF8140004F51F7001F038FA0620FFF71E
:1052100095FE03460520ADF82830FFF78FFE9DF878
:1052200029305FFA80F8C0F3072584F8856284F896
:10523000843204F283209DF8283084F8867284F842
:10524000833201F029FF04F2872084F8878284F8F2
:10525000885284F8896284F88A7201F01DFF38460A
:10526000FFF76CFEADF828003046FFF767FE9DF8AB
:105270002930C0F307255FFA80F884F88C329DF856
:10528000283084F88D6284F88E72ADF82C0004F218
:105290008B2084F88B3201F0FFFE84F8905284F862
:1052A000916212AD84F892720DF13F060DF146073E
:1052B00004F28F2084F88F8201F0EEFE16F8010FC1
:1052C000FFF73CFE034628461135ADF830300C9907
:1052D00001F0D8FBBE42F1D104F11807042312A952
:1052E0000722384604F5C67600259FED268A01F090
:1052F000D7FBE9B23846013501F0CCFDF0EE480AA3
:105300000146B0EE680A30460023012201F060F940
:10531000072D06F12006ECD10EAE0DAD0FAF3C34DB
:10532000B1464FF0010815F8010BFFF707FE0346E1
:1053300016F8010BADF81830FFF700FE034617F81A
:10534000010BADF81C30FFF7F9FD0346079A204624
:105350000699ADF820305434089BCDF8008001F058
:1053600055FA4D45DFD131B0BDEC028BBDE8F0837D
:10537000030D1A1B28AA01080A0C191D040B0E0F95
:10538000000000006F12033BFFF7EEBD183001F084
:105390006BBD00BF38B500F5C67400F51B7520461F
:1053A000203401F047F9AC42F9D138BD08B590F886
:1053B000823200F51F7043B101F04AFFB0FA80F06D
:1053C0004009B0FA80F0400908BD01F041FFB0FA91
:1053D00080F0400908BD00BF542303FB01003C30AE
:1053E00001F03CBA10B504463C3001F051FA04F12A
:1053F000900001F04DFA04F1E40001F049FA04F5DF
:105400009C70BDE8104001F043BA00BF00EB4111B1
:1054100091ED660A704700BF10B584B003460124C1
:10542000ADF8040003A8ADF80C30ADF80E4001F063
:1054300033FE214603A801F019FF204603F086F849
:10544000002103A801F012FF204603F07FF8214657
:1054500003A801F00BFF04B010BD00BF10B5C2F3EC
:10546000002384B00C46017C8DF80D2043EA4402F1
:10547000FA2402238DF80C2003AA009402F00CF900
:1054800018B10124204604B010BD04460A2003F0E0
:105490005DF8204604B010BD034670B543F8042BF8
:1054A000044684B007C983E80700A37983B91A21A9
:1054B0000B461E22FA2523742046ADF80C20022349
:1054C00003AA009502F0E8F828B1012004B070BDED
:1054D0001B210B46EDE70A2003F038F84FF4B852D1
:1054E00000950223ADF80C20204603AA217C02F08F
:1054F000D3F80028E9D10A2003F028F841F202721B
:1055000000950223ADF80C20204603AA217C02F06E
:10551000C3F80028D9D10A2003F018F80422009516
:105520000223ADF80C20204603AA217C02F0B4F837
:105530000028CAD10A2003F009F8062200950223A8
:10554000ADF80C20204603AA217C02F0A5F8002823
:10555000BBD10A2002F0FAFF41F208220095022393
:10556000ADF80C20204603AA217C02F095F8002813
:10557000ABD10A20064602F0E9FF0095022303AAF8
:10558000217C2046ADF80C6002F086F800289CD102
:10559000304602F0DBFF009522790C232046002ADA
:1055A0008DF80C3003AA4FF0020314BF6221422190
:1055B0008DF80D10217C02F06FF8002885D130465F
:1055C00002F0C4FF2279D4E902310B43DBB20AB9FD
:1055D00043F0400362790AB143F020030E22FA251A
:1055E0008DF80D302046009502238DF80C2003AA7B
:1055F000217C02F051F800287FF467AF0A2002F006
:10560000A5FF102200950223ADF80C20204603AA26
:10561000217C02F041F800287FF457AF0A2002F005
:1056200095FF122100950223ADF80C1003AA217CEE
:10563000204602F031F800287FF447AF0A2002F03C
:1056400085FF012209212046FFF708FF003818BF17
:1056500001203BE7F0B5102387B0234C0122002541
:105660000126002702A920460195CDE902234FF427
:105670008052CDE904670AF067FB642003F012FF53
:1056800002A94FF480522046CDE904670226102774
:10569000CDE902670AF058FB0322102302A9204635
:1056A000CDE9022300230422CDE904234FF48052E4
:1056B0000AF04AFB40F23223042202A9019310238C
:1056C0002046CDE90223019A012305924FF480522E
:1056D00004930AF039FB40F6060120460AF054FB19
:1056E000284607B0F0BD00BF602600241C4B0022F6
:1056F0001C494FF0400C30B5054689B00220596076
:1057000007219A601A620124DA620A224FF4006EBD
:10571000DC6006922022CDE9000104200821CDE9B9
:10572000020103201021CDE9040108206946C3E9E4
:1057300004024FF4C072181DC3E906C24FF4805230
:10574000C3E909E20AF0D6FA38B92846FFF782FF22
:10575000003818BF012009B030BD204609B030BD67
:105760005C26002440410052614A0021D0B51368F4
:105770008EB00A91002B40F0B9805E4B01214FF6AC
:1057800083700C2411600221D3F8D4200026032753
:1057900042F48052C3F8D420D3F8D42002F48052CB
:1057A0000092009AD3F8E02042F01002C3F8E02003
:1057B000D3F8E02002F010020192019AD3F8E02021
:1057C00042F04002C3F8E020D3F8E02002F04002AB
:1057D0000292029AD3F8E02042F00802C3F8E020D7
:1057E000D3F8E02002F008020392039AD3F8E020F5
:1057F00042F48072C3F8E020D3F8E02002F4807213
:105800000492049AD3F8E02042F08002C3F8E0202A
:10581000D3F8E02002F080020592059AD3F8E02048
:1058200042F02002C3F8E020D3F8E02002F020028A
:105830000692069AD3F8E02042F00402C3F8E02072
:10584000D3F8E0300C9403F0040307930323079A82
:105850000B93CDE9080108A9274805F0A9FC48F2F7
:105860003712022308A925480C94CDE90823CDE975
:105870000A6705F09DFC4CF20372022308A9204838
:105880000C94CDE90823CDE90A6705F091FC40F2BC
:10589000FF62022308A91B480C94CDE90823CDE937
:1058A0000A6705F085FC4FF60C72022308A916481A
:1058B0000C94CDE90823CDE90A6705F079FC4FF691
:1058C0003F02022308A911480C94CDE90823CDE931
:1058D0000A6705F06DFC2022022308A90A480C94EF
:1058E000CDE90A67CDE9082305F062FC0EB0D0BD12
:1058F000582600240044025800100258001802588C
:10590000000C025800200258001C025800140258D3
:105910002DE9F04FDFF8108406460D46144608F1D5
:1059200018002DED028B89B000AF02F0E1FCD8F831
:10593000183073B3D8F81C30D8F80490002B4369A2
:105940000BBF4FF0080A4FF0100A4FF0020B4FF058
:10595000040BB9F1000F2AD0A200EA46012B02F194
:10596000070222F00702ADEB020D6846ADEB020D17
:10597000694600F03F81022B00F0D680002B6FD0EB
:105980002246C847D5462437BD46BDEC028BBDE84C
:10599000F08FD8F81C30002BF5D0D8F804904FF0D9
:1059A000080A4FF0020B4369B9F1000FD4D1FB6133
:1059B000D8F80030BB61002BE5D0D54802F00AFDD5
:1059C0006B46BBF1020F786108EE103AFB6900F0FC
:1059D00083816A465146A2EBC40295466200EA46BC
:1059E000B2FBFBF2AAEBC40085460AEB8200EE464E
:1059F000F861ADEB010DF8690EEB820CC7F810C031
:105A0000EC46ADEB010D00EB8201CCF80400CCF8C4
:105A1000081001EB82013869E946CCF80C1000EB64
:105A20008201CCF800A001EB8202C9E900E0C9E9DB
:105A30000212012B00F06483022B00F06C82002B19
:105A400000F08081620849466046BB69984718EEBD
:105A5000103A24379D46BD46BDEC028BBDE8F08F61
:105A6000002C8DD01A46D8ED0C6A9FEDB27A844690
:105A7000331D36F922E00CF1080C07EE90EA33F9F9
:105A800022E00232F8EEE77A944267EE877A67EE18
:105A9000A67A4CED027A07EE90EAF8EEE77A67EE26
:105AA000877A67EEA67A4CED017AE2D8F961224650
:105AB000C847984ED8ED0D6A0020F9692B1D9FED5F
:105AC0009E7A9FED9E6ADFED9E5A22E0F4EEC67A42
:105AD000F1EE10FAC0F2C88447F6FE72D1ED017AF9
