:020000040800F2
:1000000000000220110A00080D0A0008CD82000835
:100010000D0A00080D0A00080D0A00080000000083
:100020000000000000000000000000000D0A0008B1
:100030000D0A0008000000000D0A000851820008A7
:100040000D0A00080D0A00080D0A00080D0A000834
:100050000D0A00080D0A00080D0A00080D0A000824
:100060000D0A00080D0A00080D0A0008597E000854
:10007000657E0008B56D0008717E00087D7E000871
:100080002D370108897300080D0A00080D0A0008C1
:100090000D0A00080D0A00080D0A00080D0A0008E4
:1000A0000D0A00080D0A00080D0A00080D0A0008D4
:1000B000D52A0108E12A0108ED2A0108BD730008CC
:1000C0000D0A0008C97300080D0A0008452301083D
:1000D000512301086135010891350108C535010832
:1000E0000D0A00080D0A0008000000000D0A0008B3
:1000F0000D0A00080D0A00080D0A00080D0A000884
:100100000D0A00080D0A0008F92A01085D230108FC
:10011000F93501082D3601080D0A00080D0A0008FE
:100120000D0A00080D0A000881230108B523010803
:10013000613701080D0A00080D0A00080D0A0008C1
:1001400000000000000000000000000000000000AF
:100150000D0A00080D0A00080D0A000861360108A2
:10016000D57300080D0A0008618200088582000826
:100170000D0A0008A98200080D0A00080D0A0008EF
:100180000D0A00080D0A000895360108C536010859
:1001900069230108752301080D0A00080D0A0008EB
:1001A0000D0A00080D0A00080D0A00080D0A0008D3
:1001B000797B00080D0A00080D0A00080D0A0008E6
:1001C0000D0A00080D0A0008D5680008E16800085B
:1001D0000D0A0008ED6800080D0A00080D0A000865
:1001E0000D0A00080D0A00080D0A00080D0A000893
:1001F0000D0A00080D0A00080D0A00080D0A000883
:100200000D0A00080D0A00080D0A00080D0A000872
:100210000D0A00080D0A00080D0A00080D0A000862
:100220000D0A00080D0A00080D0A00080000000071
:100230000D0A00080D0A0008000000000D0A000861
:100240000D0A00080D0A00080D0A00080D0A000832
:100250000D0A00080D0A00080D0A00080D0A000822
:100260000D0A00080D0A00080D0A00080D0A000812
:100270000D0A00080D0A0008F93601080000000008
:100280000D0A00080D0A00080D0A00080000000011
:08029000000000000D0A000847
:1002A00010B5054C237833B9044B13B10448AFF3B0
:1002B00000800123237010BDB80700240000000057
:1002C00068B1010808B5034B1BB103490348AFF3FC
:1002D000008008BD00000000BC07002468B10108D0
:1002E00001F0FF01102A2BDB10F0070F08D010F8E7
:1002F000013B013A8B422DD010F0070F42B3F6D1EB
:10030000F0B441EA012141EA014122F007047FF003
:1003100000070023F0E80256083C85EA010586EA5A
:10032000010685FA47F5A3FA87F586FA47F6A5FA96
:1003300087F68EB9EED1F0BC01F0FF0102F00702A2
:1003400032B110F8013B013A83EA010313B1F8D14D
:100350000020704701387047002D06BF354603382E
:10036000073815F0010F07D1013015F4807F02BF67
:10037000013015F4C03F0130F0BC0138704700BFB8
:10038000034613F8012B002AFBD1181A01387047D5
:1003900081F0004102E000BF83F0004330B54FEA36
:1003A00041044FEA430594EA050F08BF90EA020FA3
:1003B0001FBF54EA000C55EA020C7FEA645C7FEA36
:1003C000655C00F0E2804FEA5454D4EB5555B8BF59
:1003D0006D420CDD2C4480EA020281EA030382EACA
:1003E000000083EA010180EA020281EA0303362D5C
:1003F00088BF30BD11F0004F4FEA01314FF4801C2F
:100400004CEA113102D0404261EB410113F0004F40
:100410004FEA03334CEA133302D0524263EB4303F7
:1004200094EA050F00F0A780A4F10104D5F1200E95
:100430000DDB02FA0EFC22FA05F2801841F10001F0
:1004400003FA0EF2801843FA05F359410EE0A5F1C4
:1004500020050EF1200E012A03FA0EFC28BF4CF0F5
:10046000020C43FA05F3C01851EBE37101F00045AB
:1004700007D54FF0000EDCF1000C7EEB00006EEBB8
:100480000101B1F5801F1BD3B1F5001F0CD3490842
:100490005FEA30004FEA3C0C04F101044FEA445299
:1004A00012F5800F80F09A80BCF1004F08BF5FEA20
:1004B000500C50F1000041EB045141EA050130BD00
:1004C0005FEA4C0C404141EB0101013C28BFB1F512
:1004D000801FE9D291F0000F04BF01460020B1FA5D
:1004E00081F308BF2033A3F10B03B3F120020CDA30
:1004F0000C3208DD02F1140CC2F10C0201FA0CF00E
:1005000021FA02F10CE002F11402D8BFC2F1200C72
:1005100001FA02F120FA0CFCDCBF41EA0C01904028
:10052000E41AA2BF01EB0451294330BD6FEA040471
:100530001F3C1CDA0C340EDC04F11404C4F120025C
:1005400020FA04F001FA02F340EA030021FA04F36E
:1005500045EA030130BDC4F10C04C4F1200220FAC5
:1005600002F001FA04F340EA0300294630BD21FA03
:1005700004F0294630BD94F0000F83F4801306BFC9
:1005800081F480110134013D4EE77FEA645C18BFBD
:100590007FEA655C29D094EA050F08BF90EA020F54
:1005A00005D054EA000C04BF1946104630BD91EA4C
:1005B000030F1EBF0021002030BD5FEA545C05D14F
:1005C0004000494128BF41F0004130BD14F580048E
:1005D0003CBF01F5801130BD01F0004545F0FE4102
:1005E00041F470014FF0000030BD7FEA645C1ABF37
:1005F000194610467FEA655C1CBF0B46024650EA6E
:10060000013406BF52EA033591EA030F41F4002199
:1006100030BD00BF90F0000F04BF0021704730B51F
:100620004FF4806404F132044FF000054FF00001F4
:1006300050E700BF90F0000F04BF0021704730B5B5
:100640004FF4806404F1320410F0004548BF40428A
:100650004FF000013EE700BF42004FEAE2014FEADF
:1006600031014FEA02701FBF12F07F4393F07F4FBA
:1006700081F06051704732F07F4208BF704793F0BD
:100680007F4F04BF41F40021704730B54FF46074D0
:1006900001F0004521F000411CE700BF50EA0102D3
:1006A00008BF704730B54FF000050AE050EA01027C
:1006B00008BF704730B511F0004502D5404261EBEC
:1006C00041014FF4806404F132045FEA915C3FF42D
:1006D000D8AE4FF003025FEADC0C18BF03325FEACA
:1006E000DC0C18BF033202EBDC02C2F1200300FA7B
:1006F00003FC20FA02F001FA03FE40EA0E0021FAA0
:1007000002F11444BDE600BF53B94AB9002908BF3D
:1007100000281CBF4FF0FF314FF0FF3000F074B9DC
:10072000ADF1080C6DE904CE00F006F8DDF804E048
:10073000DDE9022304B070472DE9F047089D044627
:100740008E46002B4DD18A42944669D9B2FA82F284
:1007500052B101FA02F3C2F1200120FA01F10CFAC0
:1007600002FC41EA030E94404FEA1C48210CBEFBF8
:10077000F8F61FFA8CF708FB16E341EA034306FB81
:1007800007F199420AD91CEB030306F1FF3080F010
:100790001F81994240F21C81023E63445B1AA4B25D
:1007A000B3FBF8F008FB103344EA034400FB07F7FF
:1007B000A7420AD91CEB040400F1FF3380F00A8140
:1007C000A74240F207816444023840EA0640E41B35
:1007D00000261DB1D4400023C5E900433146BDE8E1
:1007E000F0878B4209D9002D00F0EF800026C5E983
:1007F000000130463146BDE8F087B3FA83F6002E9B
:100800004AD18B4202D3824200F2F980841A61EB12
:10081000030301209E46002DE0D0C5E9004EDDE730
:1008200002B9FFDEB2FA82F2002A40F09280A1EB18
:100830000C014FEA1C471FFA8CFE0126200CB1FB6D
:10084000F7F307FB131140EA01410EFB03F0884266
:1008500008D91CEB010103F1FF3802D2884200F2F3
:10086000CB804346091AA4B2B1FBF7F007FB101185
:1008700044EA01440EFB00FEA64508D91CEB040423
:1008800000F1FF3102D2A64500F2BB800846A4EB7E
:100890000E0440EA03409CE7C6F12007B34022FA69
:1008A00007FC4CEA030C20FA07F401FA06F31C4398
:1008B000F9404FEA1C4900FA06F3B1FBF9F8200CA5
:1008C0001FFA8CFE09FB181140EA014108FB0EF0EB
:1008D000884202FA06F20BD91CEB010108F1FF3A3B
:1008E00080F08880884240F28580A8F10208614447
:1008F000091AA4B2B1FBF9F009FB101144EA014155
:1009000000FB0EFE8E4508D91CEB010100F1FF34FF
:100910006CD28E456AD90238614440EA0840A0FB97
:100920000294A1EB0E01A142C846A64656D353D06D
:100930005DB1B3EB080261EB0E0101FA07F722FA91
:1009400006F3F1401F43C5E9007100263146BDE8BA
:10095000F087C2F12003D8400CFA02FC21FA03F31D
:10096000914001434FEA1C471FFA8CFEB3FBF7F09E
:1009700007FB10360B0C43EA064300FB0EF69E42C3
:1009800004FA02F408D91CEB030300F1FF382FD25C
:100990009E422DD9023863449B1B89B2B3FBF7F604
:1009A00007FB163341EA034106FB0EF38B4208D9DD
:1009B0001CEB010106F1FF3816D28B4214D9023E1E
:1009C0006144C91A46EA004638E72E46284605E73C
:1009D0000646E3E61846F8E64B45A9D2B9EB02080D
:1009E00064EB0C0E0138A3E74646EAE7204694E79D
:1009F0004046D1E7D0467BE7023B614432E73046D0
:100A000009E76444023842E7704700BFFEE700BFD1
:100A10000B480C4A904203D0121A0B4916F06EFD97
:100A20000A480B4A904203D0121A002116F08EFD9C
:100A300007F07CFE16F01EFD02F082FFFEE700BF0D
:100A400000000024B40700249CB10108B80700246A
:100A5000F8870024704700BF704700BF704700BF91
:100A6000A1EB000C4FEAAC034FEA2C1CBCF1000FC9
:100A700040DD00EB0C1C10B413780BE04468A3427B
:100A80000ED08468A3420FD0C468A34210D01030A7
:100A9000604511D004689C42F0D15DF8044B70476A
:100AA00004305DF8044B704708305DF8044B704724
:100AB0000C305DF8044B70470B1A9B10022B13D0BF
:100AC000032B0BD0012B03D008465DF8044B704775
:100AD000137802689A42E0D00846F6E71378026875
:100AE0009A42DAD0043000E0137802689A42D4D0F7
:100AF0000430EEE7022B05D0032B0ED0012B0AD0D9
:100B000008467047137802689A4203D0043002689E
:100B10009A42F5D170471378F9E7137802689A4240
:100B2000F8D00430EFE700BFF0B500F1080783B05C
:100B3000076029B3044608460E46FFF721FC0F283C
:100B4000054601900DD8012808D133782372019B06
:100B5000002122686360D15403B0F0BD0028F6D0B4
:100B600008E0002201A9204615F0E8FF019B074696
:100B70002060A3602A463146384616F0BFFCE6E7FF
:100B8000014815F0C9FF00BF18A5010881423FD0F8
:100B900083682DE9F0430D46076883B00446A3EB54
:100BA0000708D1E90019A9EB010646450FD84068AE
:100BB000C21B96422DD8894504D03846324616F0DD
:100BC000ABFC27683E44666003B0BDE8F083002EAE
:100BD00035D01D4B9E4234D83046019115F0D5FEDC
:100BE0002768A36805460199A3EB0708894503D048
:100BF0003246284616F082FC1FB14146384615F0B1
:100C0000C2FE2E442560A660666003B0BDE8F08396
:100C100070473AB1384616F07FFCD4E90070D5E948
:100C20000019C21B11444945CCD0A9EB010216F0B2
:100C300073FC23681E44666003B0BDE8F08335464C
:100C4000D4E715F066FF00BFFCFFFF7F10B5044638
:100C5000006818B1A168091A15F095FE204610BD6C
:100C6000E8B138B504462546E068FFF7F9FFA46807
:100C7000AB6A18461BB1296BC91A15F084FE2869A6
:100C800005F11803984203D0A969013115F07BFEE4
:100C90003421284615F077FE002CE4D138BD70478A
:100CA00010B504468068FFF7DBFF204610BD00BF8B
:100CB0002DE9F04F83B00090002800F0D880009B11
:100CC000D3F80C90B9F1000F00F0BF80D9F80CA058
:100CD000BAF1000F00F0A580DAF80CB0BBF1000FFC
:100CE00000F08B80DBF80C40002C5ED0E568002D16
:100CF00038D0EE68002E46D0F768002F69D0D7F8BC
:100D00000C80B8F1000F19D0D8F80C00CDF8048091
:100D1000FFF7CEFF019AD8F80880106902F1180198
:100D2000884204D09169013115F02DFE019A2C21E1
:100D3000104615F028FEB8F1000FE5D1386907F12B
:100D40001802D7F80880904203D0B969013115F034
:100D50001AFE2C21384615F016FEB8F1000F38D0D7
:100D60004746CCE7206904F11803A568984203D0F0
:100D7000A169013115F007FE2C21204615F003FE74
:100D80009DB12C46B2E7286905F11803AE68984278
:100D900003D0A969013115F0F6FD2C21284615F084
:100DA000F2FD002EDED03546A3E7DBF810000BF194
:100DB0001803DBF80840984204D0DBF81810013122
:100DC00015F0E1FD2C21584615F0DDFDACB1A34630
:100DD00088E7306906F11803D6F80880984203D0F6
:100DE000B169013115F0CFFD2C21304615F0CBFD56
:100DF000B8F1000FC7D046467EE7DAF810000AF1D6
:100E00001803DAF80840984204D0DAF818100131D3
:100E100015F0B9FD2C21504615F0B5FD0CB1A246D8
:100E20005AE7D9F8100009F11803D9F80840984298
:100E300004D0D9F81810013115F0A5FD2C21484631
:100E400015F0A1FD0CB1A14640E7009A106902F12E
:100E500018039468984203D09169013115F093FD0D
:100E60002C21009815F08FFD0CB1009427E703B0FA
:100E7000BDE8F08F2DE9F043044685B02C200E46E6
:100E800015F083FDA56907461C30D4E9043818EB3A
:100E9000050FC7E9043002D0B8F1000F71D00F2D53
:100EA00003955ED8012D45D198F800303B7700239B
:100EB000BD6143552278E0683A707E60C7E902332D
:100EC00018B13946FFF7D6FFF860A56875B33C4600
:100ED0002C20A14615F059FD2B6904461C302361D6
:100EE000AE696061D5F8148018EB060F02D0B8F136
:100EF000000F46D00F2E039622D8012E1DD198F850
:100F0000003023770023A66183552A78C4E9023391
:100F10002270C9F80840C4F80490E86818B1214666
:100F2000FFF7A8FFE060AD68002DD1D1384605B0CD
:100F3000BDE8F083002DBAD01CE0002EE2D009E01D
:100F4000002203A904F1140015F0F8FD039B0190A1
:100F50006061E3613246414616F0D0FA039E606953
:100F6000D0E7002203A907F1140015F0E7FD039B69
:100F70007861FB612A46414616F0C0FA039D786904
:100F800095E7014815F0C8FD18A501082DE9F043C3
:100F9000044683B02C200E4615F0F7FC07461830A7
:100FA000D4E90485386118EB050F02D0B8F1000FC1
:100FB00072D00F2D01955FD8012D47D198F80030E0
:100FC0003B7600237D614355A26AE068BA627E6089
:100FD000C7E9023323783B7018B13946FFF7D6FFD3
:100FE000F860A56875B33C462C20A04615F0CDFCF2
:100FF000044618306E692061D5F8109019EB060F81
:1010000002D0B9F1000F47D00F2E019624D8012E3F
:101010001FD199F800302376002366618355A96AB1
:101020002A78A1622270C4E90233C8F80840C4F8E3
:101030000480E86818B12146FFF7A8FFE060AD68BA
:10104000002DD1D1384603B0BDE8F083002DB8D0D3
:101050001BE0002EE0D008E0002201A904F11000FE
:1010600015F06CFD019B2061A3613246494616F0E4
:1010700045FA019E2069CFE7002201A907F110007F
:1010800015F05CFD019B3861BB612A46414616F0B4
:1010900035FA019D386994E7014815F03DFD00BF20
:1010A00018A501082DE9F04F83B00090002800F04A
:1010B000D880009BD3F80C90B9F1000F00F0BF80EE
:1010C000D9F80CA0BAF1000F00F0A580DAF80CB046
:1010D000BBF1000F00F08B80DBF80C40002C5ED0E1
:1010E000E568002D38D0EE68002E46D0F768002F56
:1010F00069D0D7F80C80B8F1000F19D0D8F80C00DF
:10110000CDF80480FFF7CEFF019AD8F80880506927
:1011100002F11C01884204D0D169013115F033FC81
:10112000019A2C21104615F02EFCB8F1000FE5D1E4
:10113000786907F11C02D7F80880904203D0F9695A
:10114000013115F020FC2C21384615F01CFCB8F1BB
:10115000000F38D04746CCE7606904F11C03A5684E
:10116000984203D0E169013115F00DFC2C21204695
:1011700015F009FC9DB12C46B2E7686905F11C0326
:10118000AE68984203D0E969013115F0FCFB2C21CF
:10119000284615F0F8FB002EDED03546A3E7DBF835
:1011A00014000BF11C03DBF80840984204D0DBF874
:1011B0001C10013115F0E7FB2C21584615F0E3FB1C
:1011C000ACB1A34688E7706906F11C03D6F8088025
:1011D000984203D0F169013115F0D5FB2C2130463E
:1011E00015F0D1FBB8F1000FC7D046467EE7DAF81C
:1011F00014000AF11C03DAF80840984204D0DAF827
:101200001C10013115F0BFFB2C21504615F0BBFB23
:101210000CB1A2465AE7D9F8140009F11C03D9F819
:101220000840984204D0D9F81C10013115F0ABFBEE
:101230002C21484615F0A7FB0CB1A14640E7009AC7
:10124000506902F11C039468984203D0D1690131BE
:1012500015F099FB2C21009815F095FB0CB100942A
:1012600027E703B0BDE8F08FF8B51F4F07F51B6601
:10127000346C9CB12546E068FFF714FFA4686869E8
:1012800005F11C03984203D0E969013115F07BFB9D
:101290002C21284615F077FB002CEBD1B46A9CB1C9
:1012A0002546E068FFF704FDA468286905F11803E6
:1012B000984203D0A969013115F065FB2C2128461D
:1012C00015F061FB002CEBD1706806F10C0398421D
:1012D00003D0F168013115F056FBBE42A6F1500370
:1012E00001D01E46C4E7F8BDF40B002470B5846835
:1012F00006469CB12546E068FFF7D4FEA4686869FD
:1013000005F11C03984203D0E969013115F03BFB5C
:101310002C21284615F037FB002CEBD1304670BD50
:1013200070B5046C06469CB12546E068FFF7BAFE2E
:10133000A468686905F11C03984203D0E96901318A
:1013400015F021FB2C21284615F01DFB002CEBD1BC
:10135000B46A9CB12546E068FFF7AAFCA468286936
:1013600005F11803984203D0A969013115F00BFB70
:101370002C21284615F007FB002CEBD1706806F1F4
:101380000C03984203D0F168013115F0FCFA3046A5
:1013900070BD00BF2DE9F047566884B0174604467B
:1013A0008846002E00F0AA8073685360002B00F07E
:1013B000C280DA6896424FF0000200F0C2809A6064
:1013C000306906F11809484503D0B169013115F0BB
:1013D000DAFAC6F81090D4E904A51AEB050F03D089
:1013E000BAF1000F00F02C810F2D039500F205815A
:1013F000012D40F0A2809AF8003033760023756109
:1014000009F80530A36AB3622378C6F80480337004
:101410000023C6E90233E06820B13A463146FFF7BF
:10142000B9FFF060A568002D00F0A1807C68B0468F
:10143000002C45D063687B60002B00F09C80DA684C
:1014400094424FF0000200F0B0809A60206904F1ED
:101450001809484503D0A169013115F094FAC4F880
:101460001090D5E904A31AEB030F03D0BAF1000FD3
:1014700000F0E6800F2B039300F28280012B7CD1D9
:101480009AF8002022760022636109F80320AB6AF3
:10149000A3622A7800232270C4E90233C8F8084006
:1014A000C4F80480E86820B13A462146FFF772FF8D
:1014B000E060AD68002D5AD0A0467C68002CB9D100
:1014C0002C2015F062FA044618306B692061D5F8BB
:1014D000109019EB030F03D0B9F1000F00F0B080AA
:1014E0000F2B039377D8012B72D199F80020227625
:1014F00000226361C254AB6AA362CAE72C2015F0D4
:1015000044FA06461830D4E90495306119EB050F0A
:1015100003D0B9F1000F00F093800F2D03957FD811
:10152000012D21D199F800303376002375614355A0
:10153000A36AB36268E7136042E7002D3FF45EAF31
:1015400065E0DA609A68002A3FF43AAFD3687A60BF
:1015500023B11A46DB68002BFBD17A609368002B1D
:101560003FF42EAF7B602BE7002DDED061E03046EC
:1015700004B0BDE8F0873B6068E7002B83D00BE048
:10158000002203A904F11000019315F0D7FA039A81
:101590008146019B2061A2611A464846514615F0DA
:1015A000ADFF039BD4F810906DE7DA609A68002ACB
:1015B0003FF44CAFD3687A6023B11A46DB68002B46
:1015C000FBD17A609368002B3FF440AF7B603DE72E
:1015D000002B8DD00AE0002203A904F11000019332
:1015E00015F0ACFA039A019B2061A2611A464946A4
:1015F00015F084FF039B20697AE7002203A906F116
:10160000100015F09BFA039B81463061B3612A46B6
:101610004846514615F072FF039DD6F81090EDE64E
:10162000002203A906F1100015F088FA039B30612F
:10163000B3612A46494615F061FF039D306974E79E
:10164000014815F069FA00BF18A5010870B50369D3
:1016500084B0846805460E460390CDE90143002C12
:1016600036D000229B68626003B102930023291DDB
:10167000C5E90231B068C5E9041398B101AAFFF7C2
:1016800089FE03461A469B68002BFBD10346EA609D
:101690001A46DB68002BFBD17369019C2A61A860A4
:1016A0006B619CB12546E068FFF702FBA4682869DE
:1016B00005F11803984203D0A969013115F063F9C7
:1016C0002C21284615F05FF9002CEBD104B070BD39
:1016D0008460011DB06802946C61C5E903110028A3
:1016E000CCD104B070BD00BF2DE9F047566884B07E
:1016F000174604468846002E00F0AA80736853609F
:10170000002B00F0C380DA6896424FF0000200F030
:10171000C3809A60706906F11C09484503D0F169DD
:10172000013115F030F92369C6E90439D4E905A57A
:101730001AEB050F03D0BAF1000F00F02C810F2D2A
:10174000039500F20581012D40F0A2809AF8003047
:1017500033770023B56109F805302378C6F8048093
:1017600033700023C6E90233E06820B13A463146BF
:10177000FFF7BAFFF060A568002D00F0A3807C6839
:10178000B046002C46D063687B60002B00F09E8042
:10179000DA6894424FF0000200F0B2809A6060690B
:1017A00004F11C09484503D0E169013115F0EBF85B
:1017B0002B69C4F81490D5F814A02361AB691AEB17
:1017C000030F03D0BAF1000F00F0E5800F2B039355
:1017D00000F28180012B7BD19AF800202277002231
:1017E000A36109F803202A7800232270C4E9023398
:1017F000C8F80840C4F80480E86820B13A46214699
:10180000FFF772FFE060AD68002D5BD0A0467C68FA
:10181000002CB8D12C2015F0B8F82B6904461C30E8
:101820002361AB696061D5F8149019EB030F03D005
:10183000B9F1000F00F0AF800F2B039376D8012B86
:1018400071D199F8002022770022A361C254CAE71F
:101850002C2015F09AF8236906461C3040F80C3C01
:101860007061D4E9059519EB050F03D0B9F1000FAC
:1018700000F091800F2D03957DD8012D1FD199F88F
:10188000003033770023B561435566E7136041E7C5
:10189000002D3FF45EAF65E0DA609A68002A3FF4FD
:1018A00039AFD3687A6023B11A46DB68002BFBD1CD
:1018B0007A609368002B3FF42DAF7B602AE7002D00
:1018C000E0D061E0304604B0BDE8F0873B6066E7F9
:1018D000002B84D00BE0002203A904F11400019333
:1018E00015F02CF9039A8146019B6061E2611A466A
:1018F0004846514615F002FE039BD4F814906EE75B
:10190000DA609A68002A3FF44AAFD3687A6023B15C
:101910001A46DB68002BFBD17A609368002B3FF4FA
:101920003EAF7B603BE7002B8ED00AE0002203A98C
:1019300004F11400019315F001F9039A019B606111
:10194000E2611A46494615F0D9FD039B60697BE7C1
:10195000002203A906F1140015F0F0F8039B81465C
:101960007061F3612A464846514615F0C7FD039D54
:10197000D6F81490EDE6002203A906F1140015F044
:10198000DDF8039B7061F3612A46494615F0B6FD08
:10199000039D706976E7014815F0BEF818A50108A7
:1019A00070B5036984B0846805460E460390CDE99E
:1019B0000143002C36D000229B68626003B1029381
:1019C0000023291DC5E90231B068C5E9041398B1A7
:1019D00001AAFFF789FE03461A469B68002BFBD13C
:1019E0000346EA601A46DB68002BFBD17369019C51
:1019F0002A61A8606B619CB12546E068FFF752FB45
:101A0000A468686905F11C03984203D0E9690131B3
:101A100014F0B9FF2C21284614F0B5FF002CEBD1AF
:101A200004B070BD8460011DB06802946C61C5E9AA
:101A300003110028CCD104B070BD00BF70B50D1EDD
:101A400020DD041F002604EB8501224652F8043FE6
:101A50008A421E44FAD116F071FC90FBF6F303FBA8
:101A60001603002003E001309B1A854204D054F88D
:101A7000042F9A42F7DD70BD044B1521044A054836
:101A800015F0ACFC16F05AFCFFDE00BF44A50108BF
:101A90006CA501088CA50108F0B583B0002302AC49
:101AA00004E9060004461148B0EB820FA360C4E9C4
:101AB000003318D396007EB130460F4614F065FF10
:101AC00005463946324635442060A56015F016FDBE
:101AD0002046656003B0F0BD354620462660A6600E
:101AE000656003B0F0BD024815F019F8FCFFFF7FF8
:101AF00098A501082DE9F041044600F1080782B0DD
:101B00000846276088461546FEF73AFC0F28064629
:101B1000019017D8012812D198F8003023720023C1
:101B200066602046BB55D5E900122B60E261AA68C9
:101B3000A1616B60AB60226202B0BDE8F081002859
:101B4000EDD008E0002201A9204614F0F7FF019B28
:101B500007462060A36032463846414615F0CEFC69
:101B6000019E2768DBE700BF2DE9F041044600F144
:101B7000080782B00846276088461546FEF700FC35
:101B80000F280646019017D8012812D198F8003086
:101B90002372002366602046BB55D5E900122B60F6
:101BA000E261AA68A1616B60AB60226202B0BDE82D
:101BB000F0810028EDD008E0002201A9204614F0B1
:101BC000BDFF019B07462060A36032463846414670
:101BD00015F094FC019E2768DBE700BF2DE9F0417A
:101BE000044600F1080782B008462760884615467B
:101BF000FEF7C6FB0F280646019017D8012812D120
:101C000098F800302372002366602046BB55D5E962
:101C100000122B60E261AA68A1616B60AB60226276
:101C200002B0BDE8F0810028EDD008E0002201A953
:101C3000204614F083FF019B07462060A3603246D4
:101C40003846414615F05AFC019E2768DBE700BF85
:101C50002DE9F041044600F1080782B008462760EC
:101C600088461546FEF78CFB0F280646019017D8CC
:101C7000012812D198F800302372002366602046B4
:101C8000BB55D5E900122B60E261AA68A1616B60C7
:101C9000AB60226202B0BDE8F0810028EDD008E020
:101CA000002201A9204614F049FF019B074620604D
:101CB000A36032463846414615F020FC019E276855
:101CC000DBE700BF2DE9F041044600F1080782B0D0
:101CD0000846276088461546FEF752FB0F28064641
:101CE000019017D8012812D198F8003023720023F0
:101CF00066602046BB55D5E900122B60E261AA68F8
:101D0000A1616B60AB60226202B0BDE8F081002887
:101D1000EDD008E0002201A9204614F00FFF019B3E
:101D200007462060A36032463846414615F0E6FB80
:101D3000019E2768DBE700BF2DE9F84384688CB378
:101D400000F10408D1E9009647466569B5422A4684
:101D500028BF324622B14946206915F0BFFB00B9C1
:101D6000A81B0028D4E9023218DB27461C46002CA9
:101D7000EBD1B84516D07C69B442224628BF324622
:101D800052B14846396915F0A9FB28B1002809DB92
:101D900007F12800BDE8F883301BF7E71446002C54
:101DA000D3D1E6E7014814F0BDFE00BFCCA5010881
:101DB00070B5D1E9002500230E46AD1A04468360B4
:101DC000C0E9003319D00F4B9D4218D8284614F0B3
:101DD000DCFD03461D44C4E90033A560D6E90010CC
:101DE0008842A0EB010504D018462A4615F094FB62
:101DF00003462B442046636070BD2B46EAE714F08F
:101E000088FE00BFFCFFFF7F10B50446006818B1D4
:101E1000A168091A14F0B7FD204610BD2DE9F04F56
:101E20008C6883B08B4681460192A4B3019BD3E9B1
:101E300000A800E014466669454627695046B0454B
:101E4000394628BF35462A4615B115F047FB08B973
:101E5000A8EB06000028D4E90212AEBF00210A4612
:101E60000121002AE6D1B9B9A3468DB12A465146CF
:101E7000384615F033FB58B100284FF000034846B0
:101E8000B4BFC9E9003BC9E9004303B0BDE8F08F26
:101E9000A6EB0800F0E70C1DDBF80C30A3420ED0D7
:101EA0002046A34614F0D8FD019B0446D0E90476F1
:101EB000D3E900A83546464528BF4546D5E7002367
:101EC0004846C9E9003403B0BDE8F08F2DE9F04F72
:101ED0001F460B1D83B00E469A4205464DD0144650
:101EE000D7E900B8D2E90419C246C84528BFCA4696
:101EF000BAF1000F1CD052465846019115F0EEFA87
:101F00000028019902D1A8EB0903002B14DB084635
:101F10005246594615F0E2FA08B9A9EB0800002824
:101F200050DB0023C5E90043284603B0BDE8F08F2D
:101F3000A8EB0903002BF0DAF368A34217D0204680
:101F400014F08AFDD0F814A08146C245524628BF3D
:101F5000424622B15946006915F0C0FA08B9AAEB09
:101F60000800002825DAD9F80C30002B4BD0284681
:101F7000C5E9004403B0BDE8F08F4B69CBB10C69F3
:101F8000D7F80480D4F81490C1454A4628BF424689
:101F900022B13968206915F0A1FA08B9A9EB080047
:101FA000002806DA00232846C5E9003403B0BDE85E
:101FB000F08F28463A463146FFF730FF284603B0F7
:101FC000BDE8F08F3369A342ECD0204614F042FD07
:101FD000D0F814A08146C245524628BF424662B19D
:101FE0005846D9F8101015F079FA30B10028E0DA27
:101FF000E3682BB1C5E9009996E7A8EB0A00F5E77D
:10200000C5E9003490E7C5E900398DE72DE9F047CF
:10201000154684B006462C200F4614F0B6FC2A68FC
:1020200000F11809044600F11003C0F81090D2E93D
:10203000008518EB050F02D0B8F1000F66D00F2D08
:10204000029529D8012D21D198F80020CC460DF118
:10205000080A2276002165613A4650460CF80510C0
:10206000A1623146FFF732FFDDE9027555B3331D3A
:10207000002F36D001202A46214614F0EFFC736968
:1020800020460133736104B0BDE8F087002D40D1D4
:10209000CC460DF1080ADDE70DF1080A00221846CA
:1020A0000193514614F04AFD029A019B2061A261FE
:1020B0002A464146019315F021FA029DD4F810C03A
:1020C000019BC7E72069814503D0A169013114F064
:1020D0005AFC20462C2114F056FC384604B0BDE8CA
:1020E000F0879D42C6D0D4F814806F694246B84547
:1020F00028BF3A4632B129692069019315F0EEF9FB
:10210000019B08B9A8EB0700C00FB4E7034814F01F
:1021100003FD48460DF1080ACAE700BF18A50108EB
:10212000F7EE000A03469FED621A00216148B0EE07
:10213000600A2DE9F04F85B01C46019303F086F844
:10214000F7EE000A9FED5A1A01215A48B0EE600AD4
:1021500003F07CF8F7EE000A9FED551A022155486E
:10216000B0EE600A03F072F8F7EE000A9FED501A25
:1021700003215048B0EE600A03F068F84D4803F0C0
:102180006BF84D4804F038FA4C4A13684C4A234423
:102190001278934271DC4B4A1278524293426CDBC4
:1021A000E3B2494F009317F8083CA7F12009009AC1
:1021B00046494846134407F8083C14F0FFFD002840
:1021C0006CD017F8063CB1EE005B17F8082C013B09
:1021D00007EE102A06EE903AB8EEC77BB8EEE66B33
:1021E0009FED314BA6EE047B37EE457BB7EEC77B08
:1021F0007C68A7F1040A07ED097A002C44D0B846A0
:1022000057E908B665695946B5422A4628BF32469D
:102210001AB1206915F062F900B9A81B0028D4E9A9
:1022200002322DDBA0461C46002CEBD1B8452CD049
:10223000D8F81440B442224628BF32462AB1584644
:10224000D8F8101015F04AF900B9301B00281CDB33
:1022500017F8083C5037D8F82820013303EB430324
:102260009B00013B134407F8573C194BBB429AD1E2
:10227000124A019913680B44136005B0BDE8F08F52
:102280001446002CBED1D1E7B846414603AA5046B9
:10229000CDF80C90FFF7BAFE8046D9E79FED047A9F
:1022A000A6E700BFAFF30080F792C6681D55B53FA3
:1022B0000000000094080024D4A50108340B002479
:1022C0000D0000240C000024180C0024F4A50108C3
:1022D000181600242DE9F043154685B007462C203A
:1022E0000E4614F052FB2B4600F11808044600F18C
:1022F000100253F8081BC0F8108099424DD00161BC
:10230000A96881612B600023696802A82B726B6049
:10231000AB6961613146A362FFF780FDDDE902959B
:1023200045B3331DB9F1000F0ED001202A462146D6
:1023300014F094FB7369012238463C6013443A71EF
:10234000736105B0BDE8F0839D42EED0D4F81490DF
:10235000D5F814804A46C14528BF424632B12969A2
:102360002069019315F0BAF8019B08B9A9EB0800A0
:10237000C00FDBE72069804503D0A169013114F06B
:1023800002FB20462C2114F0FEFA00233846C7F841
:1023900000903B7105B0BDE8F083A9688161596880
:1023A000C8F804109968C8F80810D968C8F80C1063
:1023B000A8E700BF2DE9F8438C6880469146B4B188
:1023C000166800E01C462569E268B542A368D6BFDE
:1023D000134601270027002BF4D14FB9AE42234604
:1023E00013DC00234046C8E90043BDE8F8830C1D18
:1023F000CB68A3420FD0204614F02EFBD9F8006022
:10240000056923460446AE42EBDD00224046C8E99A
:102410000023BDE8F88300234046C8E90034BDE846
:10242000F88300BF2DE9F0411D460B1D0F460646FF
:102430009A4224D0D5F800801446136943450FDD35
:10244000CB68934236D0104614F006FB036943452F
:102450001CDAC3689BB33046C6E90044BDE8F0818E
:102460001CDA0B6993421FD0104614F0F3FA03698B
:1024700098450BDAE3682BB3C6E900000BE04B6923
:1024800023B10B6929681A6991420DDC2A46394645
:102490003046FFF78FFF3046BDE8F0810023C0E9EA
:1024A00000233046BDE8F08100223046C6E9002313
:1024B000BDE8F081C0E900333046BDE8F081C6E9EF
:1024C0000030E8E7C6E90034E5E700BF91426BD091
:1024D0002DE9F04F0C4687B09346814600F1040A7F
:1024E00014E01B782B774FF0000E5346AE613A464E
:1024F000294640460CF806E014F0B0FAD9F814303A
:102500000133C9F814301C34A3454AD0234652463F
:10251000494604A8FFF786FF059F002FF3D0A7EBDD
:102520000A08049BB8FA88F84FEA5818002B18BF1D
:1025300048F00108B8F1000F2AD02C2014F025FA39
:10254000A66800F11C0C0546D4E90023F342C0E95B
:10255000042C00D04BB30F2E039604D8012EC0D00C
:10256000002EC0D00BE0002203A905F11400019356
:1025700014F0E4FA039A8446019B6861EA613246EA
:102580006046194614F0BAFF039ED5F814C0AAE7B6
:1025900022683B699A42ACBF4FF000084FF0010837
:1025A000CBE707B0BDE8F08F7047014814F0B4FAEC
:1025B00018A50108F0B5174683B005462C200E4635
:1025C00014F0E3F939680023324600F11C0609686B
:1025D0000446836101612946037700F110034661D7
:1025E0006846FFF71FFFDDE90072A2B12B1D4FB156
:1025F0000120214614F032FA6B69204601336B61E9
:1026000003B0F0BD9A42F3D0206911698842ACBF93
:1026100000200120EDE76069864203D0E1690131C5
:1026200014F0B1F920462C2114F0ADF9384603B06E
:10263000F0BD00BF2DE9F041154682B007462C20C1
:102640000E4614F0A2F92B6800F11C086A680446D3
:10265000036105F10C03C0F814809A423CD042613A
:10266000EA68C261AA6831466B600023A2616846CD
:1026700004F110022B73AB60FFF79CFEDDE9005202
:10268000C2B1331D6DB10120214614F0E7F9736921
:10269000012238463C6013443A71736102B0BDE8D0
:1026A000F0819A42EFD0206911698842ACBF0020C6
:1026B0000120E9E76069804503D0E169013114F048
:1026C00062F920462C2114F05EF9002338463D6063
:1026D0003B7102B0BDE8F081EA68C2615A68C8F88F
:1026E00004209A68C8F80820DA68C8F80C20B9E70E
:1026F00070B501238AB000F12006054605AC0493AD
:102700000993432301A803AA31460394ADF814307A
:10271000FFF7E0FD0398A04203D00599013114F0C2
:1027200032F9022301A803AA31460493099342F225
:1027300043330394ADF8143000238DF81630FFF7BF
:10274000C9FD0398A04203D00599013114F01BF98B
:10275000012301A803AA3146049344230394ADF84E
:10276000143003230993FFF7B5FD0398A04203D06B
:102770000599013114F007F946F2452303AA3146C1
:102780000394ADF814300223049300238DF816301F
:1027900004230DEB03000993FFF79CFD0398A0426F
:1027A00003D00599013114F0EEF8012301A803AA22
:1027B0003146049345230394ADF81430052309935F
:1027C000FFF788FD0398A04203D00599013114F06A
:1027D000DAF8012301A803AA31460493462303949F
:1027E000ADF8143006230993FFF774FD0398A04257
:1027F00003D00599013114F0C6F842F2463301A81E
:1028000003AA3146ADF81430022303940493002345
:102810008DF8163007230993FFF75CFD0398A0425B
:1028200003D00599013114F0AEF8012301A803AAE1
:102830003146049347230394ADF8143008230993D9
:10284000FFF748FD0398A04203D00599013114F029
:102850009AF842F2473301A803AA3146ADF8143082
:1028600002230394049300238DF81630092309935F
:10287000FFF730FD0398A04203D00599013114F011
:1028800082F8012301A803AA31460493412303944B
:10289000ADF814300A230993FFF71CFD0398A042FA
:1028A00003D00599013114F06EF846F2422301A8D5
:1028B00003AA3146ADF81430022303940493002395
:1028C0008DF816300B230993FFF704FD0398A042FF
:1028D00003D00599013114F056F8012301A83146BF
:1028E000039404934223ADF814300C230DEB030240
:1028F0000993FFF7EFFC0398A04203D0059901313B
:1029000014F041F80123383506AC01A8039303AA5B
:102910000593432329460494ADF81830FFF78AFE47
:102920000498A04203D00699013114F02CF8022338
:1029300001A803AA29460593CDE9033400238DF8A5
:102940001A3042F24333ADF81830FFF773FE0498A3
:10295000A04203D00699013114F015F8032301A811
:1029600003AA2946CDE90334012305934423ADF896
:102970001830FFF75FFE0498A04203D0069901319A
:1029800014F001F8042301A803AA2946CDE9033471
:1029900046F24523ADF818300223059300238DF845
:1029A0001A30FFF747FE0498A04203D00699013180
:1029B00013F0E9FF052301A803AA2946CDE9033452
:1029C000012305934523ADF81830FFF733FE049833
:1029D000A04203D00699013113F0D5FF062301A8C8
:1029E00003AA2946CDE90334012305934623ADF814
:1029F0001830FFF71FFE0498A04203D0069901315A
:102A000013F0C1FF072301A803AA2946CDE9033427
:102A100042F24633ADF818300223059300238DF8B7
:102A20001A30FFF707FE0498A04203D0069901313F
:102A300013F0A9FF082301A803AA2946CDE903340E
:102A4000012305934723ADF81830FFF7F3FD0498F1
:102A5000A04203D00699013113F095FF092301A884
:102A600003AA2946CDE9033442F24733ADF81830C2
:102A70000223059300238DF81A30FFF7DBFD04983D
:102A8000A04203D00699013113F07DFF0A2301A86B
:102A900003AA2946CDE90334012305934123ADF868
:102AA0001830FFF7C7FD0498A04203D00699013102
:102AB00013F069FF0B2301A803AA2946CDE90334CB
:102AC00046F24223ADF818300223059300238DF817
:102AD0001A30FFF7AFFD0498A04203D006990131E8
:102AE00013F051FF0C2301A829460DEB03020393B9
:102AF0000123CDE904434223ADF81830FFF79AFDD6
:102B00000498A04203D00699013113F03CFF0AB0AB
:102B100070BD00BF00000000654AD2E900312DE918
:102B2000F043C91A044685B018468910614DFEF776
:102B300085FF614A6D7F0023126804F10C0104F1E6
:102B40003C07261D52F820202046A360B8461544B5
:102B5000237384F82430A362013D636384F83C301E
:102B6000EDB22364E36404F124036160C4E90B3330
:102B7000C4E91177FFF7BCFD504B6577A3FB052334
:102B8000DB0803EB4303A5EB8305236C0135EDB2B2
:102B9000A577002B3AD019698D42D3E902025EDD98
:102BA0001346002BF7D1474530D0D8F810309D425E
:102BB0002CDB08F11401304614F01AF8637F3F4A09
:102BC00030463F49A2FB0323DB08013B237714F087
:102BD000F5F8002848D0A37FB1EE005B227F2046A5
:102BE000013B07EE102A06EE903AB8EEC77BB8EE2E
:102BF000E66B9FED2D4BA6EE047B37EE457BB7EEE3
:102C0000C77B84ED007A05B0BDE8F0832C20CDF8B9
:102C1000048013F0BAFE002300F11C0905618361F2
:102C20008046037704F13801019A00F11003C0F8DF
:102C3000149002A8FFF7F6FBDDE90252E2B1281E6C
:102C400018BF0120974208BF40F0010018B33B466F
:102C5000414613F003FFE36C0133E364A9E79846B0
:102C60000346002B97D19EE79FED167A204684ED10
:102C7000007A05B0BDE8F083D8F81400814504D08F
:102C8000D8F81C10013113F07EFE40462C21A846D6
:102C900013F079FE8DE7D8F8100013699842ACBFA5
:102CA00000200120D3E700BFF792C6681D55B53F4D
:102CB000F42500249C0B002400260024ABAAAAAA19
:102CC000F4A501080000000030B5464895B003F0B7
:102CD00093FCB7EE001ADFED440A00214348B0EE42
:102CE000410A02F0B3FAB7EE001ADFED3F0A012104
:102CF0003E48B0EE410A02F0A9FAB7EE001ADFED45
:102D00003A0A02213948B0EE410A02F09FFAB7EEC2
:102D1000001ADFED350A03213448B0EE410A02F013
:102D200095FA324802F098FA15F008FB304B054648
:102D300068461C6895FBF4F303FB14552D4CFFF714
:102D4000EBFE009B05EB850501A904EB051004468D
:102D50000430236013F04CFF9DF81E20BDF81C309A
:102D600004F12000A27708A9A383FEF76FFC04F109
:102D700038000EA9FEF714FE109C9CB12546E068B1
:102D8000FEF790F9A468686905F11C03984203D026
:102D9000E969013113F0F7FD2C21284613F0F3FD0A
:102DA000002CEBD10A9C9CB12546E068FDF780FF22
:102DB000A468286905F11803984203D0A969013174
:102DC00013F0E1FD2C21284613F0DDFD002CEBD1A2
:102DD000019803AB984203D00399013113F0D3FD5E
:102DE00015B030BDFCA501080000000094080024C7
:102DF0003C000024F40B002400232DE9F04F8360F5
:102E000000F1240A037385B080F82430D6B28362BF
:102E100000F1040B4363054680F83C300364C3644F
:102E200000F13C0301910096C0E9113300F10C035D
:102E3000C0E90BAA4360FFF75BFC0199584613F009
:102E4000D7FEAC6A2E77002C56D0D146D5E9018743
:102E500066694146BE42324628BF3A461AB12069E9
:102E600014F03CFB00B9F01B0028D4E9022150DB30
:102E7000A1461446002CEBD1CA453ED0D9F81440E7
:102E8000BC42224628BF3A462AB14046D9F8101023
:102E900014F024FB00B9381B00282EDB009B584699
:102EA000254903F1010899F8283008EB4808AB7769
:102EB00003EB880808F1FF3885F81D8013F07EFFCA
:102EC00058B3AB7FB1EE005B2A7F2846013B07EE8B
:102ED000102A06EE903AB8EEC77BB8EEE66B9FED8F
:102EE000144BA6EE047B37EE457BB7EEC77B85ED32
:102EF000007A05B0BDE8F08FD146494603AA05F136
:102F00002000CDF80CB0FFF781F82B7F81460093AD
:102F1000C4E70C46002C9BD1AEE79FED087A28460B
:102F200085ED007A05B0BDE8F08F00BFAFF30080FB
:102F3000F792C6681D55B53FF4A5010800000000D2
:102F40002DE9F04FB548B64E2DED028BB3B003F02E
:102F500053FBB7EE001A0021B248F0EE410AB0EE82
:102F6000410A02F073F9B7EE001A0121AD48F0EE04
:102F7000410AB0EE410A02F069F9B7EE001A0221E7
:102F8000A848F0EE410AB0EE410A02F05FF9B7EE50
:102F9000001A0321A348F0EE410AB0EE410A02F004
:102FA00055F9A04802F058F99F49B3680D78002BF5
:102FB00000F09384043631461A699542D3E9024001
:102FC00040F32B820346002BF6D1B14200F08584FA
:102FD0000B699D42C0F28184944F1431384613F03E
:102FE00007FE934B9C68002C00F0778403F10408E3
:102FF000D7E900A9464665694D452A4628BF4A4695
:1030000022B15146206914F069FA08B9A5EB09000C
:103010000028D4E90232C0F2068226461C46002C63
:10302000E9D1464500F0598474694C45224628BFD1
:103030004A46002A00F0EF805046316914F04EFAFB
:10304000002800F0E8800028C0F2478406F128013B
:103050007848FDF79BFD784B9C68002C00F03D8480
:1030600003F10408D7E9009647466569B5422A4648
:1030700028BF324622B14946206914F02FFA00B920
:10308000A81B0028D4E90232C0F2D28127461C4690
:10309000002CEAD1474500F020847C69B4422246E6
:1030A00028BF3246002A00F0B4804846396914F03F
:1030B00015FA002800F0AD800028C0F20E8407F158
:1030C00028015E48FDF762FD5D4C00235D495E4AC4
:1030D00004F11C0904F1340A1E460B601370002E23
:1030E00040F0C2800121594B032259481A60016007
:1030F0001EA80DF17C0BFFF70FFD1E9B59462046C5
:1031000044F8043C13F074FD9DF89430514D26A909
:10311000237648469DF8953063769DF89630A376E1
:10312000FEF794FA2CA95046FEF73AFC28461E9B5F
:10313000594640F8043B13F05BFD9DF8963026A9F4
:1031400005F12000AB77BDF89430AB83FEF77EFA33
:103150002CA905F13800FEF723FC2E9FAFB1B8462D
:10316000F868FDF79FFFBF68D8F8140008F11C034A
:10317000984204D0D8F81C10013113F004FC2C2123
:10318000404613F000FC002FE9D1289FAFB1B846AC
:10319000F868FDF78DFDBF68D8F8100008F1180336
:1031A000984204D0D8F81810013113F0ECFB2C2110
:1031B000404613F0E8FB002FE9D11F9821AB98425D
:1031C00003D02199013113F0DEFB54F8043C214671
:1031D00021482B6013F00CFD277E4946627EA37EBA
:1031E0001E482F776A77AB77FEF730FA51461C48B6
:1031F000FEF7D6FB50341B4B013609F15009A342B0
:103200000AF1500A7FF46BAF33B0BDEC028BBDE81E
:10321000F08F301B50E7A9EB040014E71CA601084F
:10322000080800249408002438000024D80700244B
:10323000200800240026002438080024F425002457
:10324000F80B0024340B00249A0B0024280B0024D4
:103250002C0B0024480B00244C0B0024680B00248A
:10326000800B0024F815002415F068F8794A6421D1
:10327000794D82FB0032C317C3EB621301FB1300CD
:1032800007EE900A95ED006BB8EEE77BB4EEC67BD7
:10329000F1EE10FA7DD5002327A970482DAADFF89A
:1032A000D0C11AAF04250DF18408036018A82A9133
:1032B0000DF17C0B18978DF86C308DF884308DF8FB
:1032C0009C302B938DF8B430CDE928316449CDE999
:1032D000195CCDE91F83CDE92E32CDE9302313F0FF
:1032E0006DFD0146002800F0A8801898B84203D070
:1032F0001A99013113F047FB1E9B5946204644F8AA
:10330000043C13F075FC9DF894509DF8952026A977
:103310009DF89630484625766276A376FEF796F9B4
:103320002CA95046FEF73CFB2E9D9DB12F46E86828
:10333000FDF7B8FEAD68786907F11C03984203D029
:10334000F969013113F01FFB2C21384613F01BFBE8
:10335000002DEBD1289D9DB12F46E868FDF7A8FC14
:10336000AD68386907F11803984203D0B969013193
:1033700013F009FB2C21384613F005FB002DEBD18F
:103380001F9840453FF436AF2199013113F0FBFA05
:1033900030E7344F0121D7E90053D7E902021D4439
:1033A0002E4B28441960851814F0C8FF39460023B5
:1033B00090FBF5F202FB150004E00133801A042BA8
:1033C00000F0908251F8042B8242F6DD264A136009
:1033D0004BB1022B4ED0012B00F02C81032B3FF47C
:1033E00087AE224DF1E6214D2046294651F8043B97
:1033F00044F8043C13F0FCFB2F7F6A7F05F12001A9
:10340000AB7F484627766276A376FEF71FF905F173
:1034100038015046FEF7C4FAD7E619462346002B7A
:103420007FF4CAADD1E51446002C7FF4E4ADF8E595
:103430001446002C7FF419AE2CE602905846084B37
:10344000209A009513F03CFC0299ADF894508DF849
:1034500096104AE71F85EB51300000242C0B002406
:10346000F4A5010814000024280B0024480B0024B4
:10347000726573746B4F6C4D796805F11E02386884
:10348000FDF7EEFA3A6895F81CB0801A8310013BFC
:1034900005D57B680BF1FF3B9B1A9B10013B52F853
:1034A00023202B6C0492002B00F01A82DFF880C1DD
:1034B000964661469A68D3E90370864540F3AC802E
:1034C0003B46002BF6D1614502D00B699E4506DADA
:1034D00004AB1EAA55481E93FFF76CF8014608ABD3
:1034E0000693D1E90573DF4202D0002F00F0178266
:1034F0000F2B1E9300F2AB81012B40F08C813A78A8
:1035000008A98DF8202000220793CA540EAB0C9313
:10351000DDE90637FB4202D0002B00F000820F2FBE
:103520001E9700F27D81012F40F06A811B780DF11A
:10353000380C0DF178088DF838300CAB08EE103AE5
:1035400000230D975A4618EE101A0CF80730404623
:10355000FFF752FC0C980EAB984203D00E99013144
:1035600013F011FA1E9B1FA9204644F8043C13F0E7
:103570003FFB9DF895309DF8942026A96376484638
:103580009DF896302276A376FEF760F82CA9504677
:10359000FEF706FA2E9FAFB1B846F868FDF782FD38
:1035A000BF68D8F8140008F11C03984204D0D8F87A
:1035B0001C10013113F0E7F92C21404613F0E3F918
:1035C000002FE9D1289FAFB1B846F868FDF770FB2E
:1035D000BF68D8F8100008F11803984204D0D8F852
:1035E0001810013113F0CFF92C21404613F0CBF91C
:1035F000002FE9D11F9821AB984203D021990131C6
:1036000013F0C1F9069808AB98423FF4DEAD089973
:10361000013113F0B8F9D8E519461346002B7FF4B1
:1036200049AF50E700260024480B0024800B0024FB
:10363000840B0024AE4FAF4D796805F11E02386847
:10364000FDF70EFA95F81CB0D7E90031C01AC91A77
:1036500082100132B2EBA10F80F2C8800430034423
:1036600019682B6C0591002B00F0C880DFF88CC224
:10367000E6469A68D3E90370814240F3B1803B4645
:10368000002BF6D1E645724603D0DEF810309942A1
:1036900007DA05AB114698481EAA1E93FEF78AFF6B
:1036A000024614AB1293D2E90573DF4202D0002F19
:1036B00000F035810F2B1E9300F2FE80012B40F0AD
:1036C000E0803A788DF8502014AA002113931AAFA5
:1036D000D154129B18971A460293139BDA4202D0D8
:1036E000002A00F01C810F2B1E9300F2CE80012BCC
:1036F00040F0BE80029ABC460DF1780812788DF831
:10370000682018AA08EE102A4FF0000E19935A46A6
:1037100018EE101A40460CF803E0FFF76DFB1898FE
:10372000B84203D01A99013113F02DF91E9B1FA93D
:10373000204644F8043C13F05BFA9DF895309DF860
:10374000942026A9637648469DF896302276A37683
:10375000FDF77CFF2CA95046FEF722F92E9FAFB152
:10376000B846F868FDF79EFCBF68D8F8140008F169
:103770001C03984204D0D8F81C10013113F003F94F
:103780002C21404613F0FFF8002FE9D1289FAFB15C
:10379000B846F868FDF78CFABF68D8F8100008F151
:1037A0001803984204D0D8F81810013113F0EBF840
:1037B0002C21404613F0E7F8002FE9D11F9821ABE8
:1037C000984203D02199013113F0DDF8129814AB1F
:1037D00098423FF4FAAC1499013113F0D4F8F4E4B0
:1037E0009E461346002B7FF444AF4BE719680BF15C
:1037F000010B2B6C0591002B7FF438AF3F4A48E753
:10380000002F40F085800CAB0DF1380C0DF17808DD
:1038100008EE103A94E6002B40F08D8008A972E67D
:1038200002930DF178080CAB00224146184608EED1
:10383000103A13F083F91E9A029B0C900E923A46AE
:10384000194613F05BFE1E9FDDF830C078E60022BB
:103850001EA906A8029313F071F91E9A029B069006
:1038600008921A46394613F049FE1E9B06994AE60D
:10387000002B59D118AABC460DF1780808EE102A81
:1038800042E7002B4ED114AA1FE703930DF17808ED
:1038900018AB00224146184608EE103A13F04EF9D4
:1038A0001E9A039B18901A921A46029913F026FE4C
:1038B0001E9BDDF860C027E700221EA912A8029314
:1038C00013F03CF91E9A029B129014921A46394644
:1038D00013F014FE1E9B129AF7E6094813F022F922
:1038E0000649F5E5074B1521074A084813F076FD10
:1038F00000260024480B0024800B0024840B0024A5
:10390000CCA5010844A501086CA501088CA50108F7
:103910000CAA0EA80DF1780808EE102A8FE70748C8
:1039200013F0FAF814A8D1E718AA38460DF1780870
:1039300008EE102AB8E708A893E700BF18A5010809
:103940002DE988480020BC4C14F08AFDB6EE008AB0
:1039500014F0C6FC0021B94801F04AFB002002F037
:1039600059FEB64801F04CFCB54802F045FEB7EEF2
:10397000001A9FEDB40A0021B048F0EE410AAF4DA5
:1039800001F064FCB7EE001A9FEDAE0A0121AB48CE
:10399000F0EE410ADFF81CB301F058FCB7EE001A54
:1039A0009FEDA80A0221A548F0EE410ADFF808A31E
:1039B00001F04CFCB7EE001A03219FEDA20A9F48CC
:1039C000F0EE410ADFF8F49201F040FC9B4801F070
:1039D00043FC9A4801F006FA84ED000AFFF7B0FABA
:1039E000994A9A49002394ED000A1268984812F007
:1039F000A7FD974A974B94ED000A974882ED008AFD
:103A0000936082ED038A12F0DBFE9348B0EE480A21
:103A100012F074FF91492846DFF8A482904F914E2E
:103A2000914C01F0EBFB854801F0EEFB8F4802F072
:103A300091FE824801F010FC95F8703223B195F8A0
:103A400076327F2B00F0F180894803F03BFB0028A1
:103A500040F0A0800123874A1370874A137087487B
:103A600003F030FB00286AD10123854A0521734801
:103A70001370844A136001F003FC834B06216F48E6
:103A800083ED000A01F0FCFB734812F06FFF032185
:103A90006A4801F0F5FB7D4B83ED000A0021674881
:103AA00001F0EEFBDFED7A7A0121644820EE270A6F
:103AB000BAFE400ABDEEC00A8BED000A01F0E0FB41
:103AC000DAED057AB7EE005B02215C48B8EEE76BF1
:103AD00085EE067BB7EEC77BC0EE077AFAFE677A03
:103AE000FDEEE77A17EE903A89F8003001F0C8FB56
:103AF0009FED687A04215148C0EE077AFAFE677A92
:103B0000FDEEE77A17EE903A88F8003001F0B8FB46
:103B10009FED617A4948A0EE477AB7EEC77A87ED04
:103B2000007B01F07DFB307038B1207828B95B480C
:103B300002F062FDFFF704FA3078207073E758480E
:103B400003F0C0FA4D4803F0BDFA002835D05448C0
:103B500003F0B8FA88B34A4A0023032137481370A8
:103B600001F08EFB9FED4C8A0521484B334883EDD5
:103B7000000A01F085FB20EE080A4A4B06212F4877
:103B800083ED000A01F07CFB20EE080A464B83ED32
:103B9000000A83E7454803F095FA354803F092FAA6
:103BA000002831D0414803F08DFA68B30123314A2F
:103BB00013700023304A137051E7304803F082FA43
:103BC00000283FF46BAF364803F07CFA00287FF4FE
:103BD00065AF2C4B05212A4A186001231748137042
:103BE00001F04EFB1A4B0321144883ED000A01F04B
:103BF00047FB174B0621114883ED020A01F040FBF9
:103C0000134B83ED030A49E7194803F05BFA0028D8
:103C10003FF425AF254803F055FA00287FF41FAF85
:103C2000144B1870144B187019E7214802F0E4FC8B
:103C3000FFF786F908E700BFEC0B00249408002486
:103C400034A601080000000040000024F415002400
:103C500094250024C3F5A83E7008002411420008F2
:103C600030000024F1250024990B0024000B0024CF
:103C7000170B00240E000024040000241F0B002456
:103C8000380B0024F00B00246C080024900800245A
:103C9000000000420AD7A33C0000C84258A6010811
:103CA000230B002424000024100000241B0B0024FC
:103CB00048A601083C00002408080024380000241D
:103CC00028000024000000002DE9F04FB44D00242E
:103CD0002DED048B99B09FEDB31A2146B248013403
:103CE000F0EE410AB0EE410A01F0B0FA284602F0C7
:103CF00009FD042C05F15405EDD1AC4B1B7806EE03
:103D0000903AAB4B1B78F8EE666A07EE103AA94B77
:103D1000B8EE477A9FEDA05BC6EE877A77EEA77A7A
:103D2000B7EEE76AB4EEC56BF1EE10FA00F1F08081
:103D3000DFF8A482C3ED007A98F80010002900F0A3
:103D4000F0809D4A1278002A40F0F7809B4A127852
:103D5000002A40F0FD8193ED001ADFF88092924C2A
:103D6000DFED970A9FED970A99F80010204601F0C1
:103D70006DFA99F80000542303FB00403C3002F038
:103D8000C1FC99F800300DF11C0A98F8006001336D
:103D90008D4D06EB8602CDF814A0DBB205EB0212C6
:103DA000032B174688BF002389F80030136804935B
:103DB000D2E90134B200E342019202D0002B00F0BC
:103DC000F9810F2C039400F2D180012C40F0C780C0
:103DD0001B7852460DF1140B8DF81C30B3000DA961
:103DE0000694334405EB0315002313558DF8343046
:103DF0000E931193AB7FB86A8DF82E30CDE90F1179
:103E0000AB8BADF82C3080B1FDF7C0F803461A46F5
:103E10009B68002BFBD103460F921A46DB68002BF0
:103E2000FBD17B6B10920E901193002313A9386C79
:103E30008DF84C3014931793CDE9151180B1FDF72F
:103E400019F803461A469B68002BFBD103461592CE
:103E50001A46DB68002BFBD1FB6C1692149017936B
:103E600058465A4912F0AAFF002840F0BD8098F841
:103E70000030574A01331268DBB2934288F80030B1
:103E80000EDB4D4B1B78002B40F000814B4B1B7819
:103E9000002B40F02981002388F8003089F8003099
:103EA000149C9CB12546E068FDF7FCF8A46868699D
:103EB00005F11C03984203D0E969013112F063FD5A
:103EC0002C21284612F05FFD002CEBD10E9C9CB1FA
:103ED0002546E068FCF7ECFEA468286905F11803A4
:103EE000984203D0A969013112F04DFD2C212846DA
:103EF00012F049FD002CEBD10598504503D00799ED
:103F0000013112F040FD19B0BDEC048BBDE8F08F1B
:103F1000DFF8C4802F4A98F800101A6000297FF457
:103F200010AF9FED201AF7EE000A1F48B0EE410ACD
:103F3000DFF8A89001F08AF923E7204A1278002AD6
:103F40003FF409AFDFF89490174CDFED160A93EDBC
:103F5000001A2046B0EE600A99F8001007E7002C1E
:103F600040F0248152460DF1140B37E70DF1140B8C
:103F7000002203A90193584612F0E0FD039A019B29
:103F8000059007922246194613F0B8FA039C059A49
:103F900024E700BFAFF300809A9999999999C93F96
:103FA000D008002400000000940800249A0B00248C
:103FB00028000024D4070024040000240E0000245C
:103FC0007B142E3E0AD7233EF40B0024F4A50108EF
:103FD0003C000024CDCC4C3E600800245008002456
:103FE00000008A420000DC439DF82D30F2EE088A82
:103FF0001FED059AB0EE000A00EE903A1FED078A19
:10400000F8EE600A70EEC90AC0EEA80A12F0F4FEDB
:104010006A496B484FF07E530B6020EE080A80ED32
:10402000010A12F0FBFA9DF82D30B0EE000A00EE06
:10403000903AF8EE600A70EEC90AC0EEA80A12F0D3
:10404000DBFE604820EE080A12F074FC9DF82D306B
:10405000B0EE000A00EE903AF8EE600A70EEC90A7F
:10406000C0EEA80A12F0C8FE574B564893ED007AEE
:1040700020EE080AF1EE007A20EE070A20EE270A69
:1040800012F03CFC514B049A1A60F0E6504A137847
:1040900014460133137014F051F923784D4A06EE9B
:1040A000903A4D4B9FED4D6A1B78F8EE666A07EE2D
:1040B000903A82FB0032C317F8EE677AC3EB6213C3
:1040C000642286EEA77A02FB130007EE900AF8EE50
:1040D000E77A27EE067AF4EEC77AF1EE10FA7FF56A
:1040E000D5AEFEF72DFFD6E614F028F9394C3C4B3F
:1040F000642593ED007A84FB0032C317C3EB62138F
:1041000005FB130007EE900AF8EEE77AF4EEC77AA3
:10411000F1EE10FA30D5334B1B78A3B9324B1B7834
:1041200033BB14F00BF984FB0034C317C3EB6413E7
:1041300005FB1300312815DC2C4B2D4A1B78126827
:104140005B42934214DA4FF0FF30FDF7E9FFA2E63D
:1041500093ED001ADFF8B490264CDFED270A9FEDAF
:10416000270A01E6264A224B12781B689A42EADDAA
:104170000120FDF7D5FF8EE614F0E0F884FB003453
:10418000C317C3EB64141F4B05FB140093ED007AB7
:1041900007EE900AF8EEE77AF4EEC77AF1EE10FA3D
:1041A0007FF579AE0120FEF78FFD74E650460DF1E4
:1041B000140BE7E6144812F0AFFC00BFC82500243A
:1041C00094250024700800246C080024640800244E
:1041D0009A0B00241F85EB51280000240000484260
:1041E0002400002468080024F22500240C00002488
:1041F000340B002494080024C3F5A83E00000000FE
:104200000D0000241000002418A501085008002407
:104210002DE9F8431746002A00F09D8003680E46FA
:10422000002503EB8202F6EE007AB3EC017AB4EEDD
:10423000677AF1EE10FAC8BF01259A42F3D14C4CCF
:10424000DFF8688125701DB198F80050002D3DD031
:10425000002488F80050DFF85891DFF8588125468F
:1042600017E0444A8C461B68434811465BBB4348F1
:10427000C2F800C012F0D2F90135D6E90023AF42EE
:104280002244234404F1040482ED000A83ED000A71
:1042900017D0502398F80000394903FB00900430F0
:1042A00012F08CFD374B00210028DAD10135D6E918
:1042B0000023AF422244234404F104041160196036
:1042C000E7D1BDE8F88312F089FAD5E704F070F879
:1042D00007EE900A2C4BB8EE676B2C492C4A2D4800
:1042E00093ED005B83ED006B0B6836EE455B0133AD
:1042F00092ED007B04EE903A062B0B6035EE077BC7
:10430000B8EEE42B9FED183B87EE024B82ED007B6D
:1043100090ED007A2048B7EEC77A80ED006B1F4819
:1043200080ED005B1E4884EE036B80ED004B1D4862
:1043300027EE067B80ED006B1B48B7EEC77B80ED58
:10434000007A04DD00200D600021C2E90001FFF7C2
:10435000BBFC25787CE7064A144B17701F70BDE83C
:10436000F88300BFAFF300800000000080842E417E
:10437000F0250024C825002470080024942500247A
:10438000F4A50108F00B0024400B0024300B00249E
:10439000D82500249008002458080024D0250024A3
:1043A000E0250024E825002408000024980B0024C0
:1043B000F40B0024600800242DE9F04F8C6883B0D2
:1043C0008B4681460192A4B3019BD3E900A800E08B
:1043D00014466669454627695046B045394628BFA8
:1043E00035462A4615B113F079F808B9A8EB06004E
:1043F0000028D4E90212AEBF00210A460121002A9A
:10440000E6D1B9B9A3468DB12A465146384613F0D4
:1044100065F858B100284FF000034846B4BFC9E919
:10442000003BC9E9004303B0BDE8F08FA6EB0800EC
:10443000F0E70C1DDBF80C30A3420ED02046A3465B
:1044400012F00AFB019B0446D0E90476D3E900A8E8
:104450003546464528BF4546D5E700234846C9E9C5
:10446000003403B0BDE8F08F2DE9F04F1F460B1D5F
:1044700083B00E469A4205464DD01446D7E900B89F
:10448000D2E90419C246C84528BFCA46BAF1000F8E
:104490001CD052465846019113F020F8002801998B
:1044A00002D1A8EB0903002B14DB084652465946FB
:1044B00013F014F808B9A9EB0800002850DB00231A
:1044C000C5E90043284603B0BDE8F08FA8EB090317
:1044D000002BF0DAF368A34217D0204612F0BCFAA2
:1044E000D0F814A08146C245524628BF424622B1A8
:1044F0005946006912F0F2FF08B9AAEB080000283B
:1045000025DAD9F80C30002B4BD02846C5E90044F9
:1045100003B0BDE8F08F4B69CBB10C69D7F80480CC
:10452000D4F81490C1454A4628BF424622B13968A2
:10453000206912F0D3FF08B9A9EB0800002806DAB9
:1045400000232846C5E9003403B0BDE8F08F2846B3
:104550003A463146FFF730FF284603B0BDE8F08FFA
:104560003369A342ECD0204612F074FAD0F814A0BC
:104570008146C245524628BF424662B15846D9F8E4
:10458000101012F0ABFF30B10028E0DAE3682BB175
:10459000C5E9009996E7A8EB0A00F5E7C5E90034FC
:1045A00090E7C5E900398DE7914200F094802DE94C
:1045B000F04F0D4687B09246804600F104092AE08C
:1045C000484B9B4500F28B80584612F0DEF90346BB
:1045D000D5E9061CACEB010203EB0B008C45206314
:1045E000C4E90A3305D01846019212F095FF019AEA
:1045F000034603EB020C21464B463A463046C4F8CC
:104600002CC012F02BFAD8F814300133C8F814304B
:104610002435AA455CD02B464A46414604A8FFF7FC
:1046200023FF059F002FF3D0A9EB0706049BB6FAE2
:1046300086F67609002B18BF46F00106002E38D00A
:10464000342012F0A2F904461830D5E900B32061F5
:104650001BEB030F02D0BBF1000F3DD00F2B0393D8
:1046600015D8012B10D19BF800202276002263611F
:10467000C2542263D5E9061CC4E90A22BCEB010B33
:104680009ED15A465B46A7E7002BEFD00AE00022F6
:1046900003A904F11000019312F050FA039A019B50
:1046A0002061A2611A46594612F028FF039B206937
:1046B000DCE76E687C693246A64228BF224622B1FA
:1046C0003969286812F00AFF00B9301BC60FB7E736
:1046D00007B0BDE8F08F7047034812F01DFA12F0E2
:1046E00018FA00BFFCFFFF7F18A5010800000000BA
:1046F0002DE9F04FADF50F7D0123C24959A858931C
:10470000FCF712FA0223C04960A85F93FCF70CFA89
:104710000323BE4967A858AC6693FCF705FA042347
:10472000BB496EA882AD6D93FCF7FEF90523B9492C
:1047300075A87493FCF7F8F90623B7497CA87B9316
:10474000FCF7F2F9B54800232146021D037183608E
:104750004361C0E903222A46FDF7B8FE1C3D281D2F
:1047600012F00EFAA542F9D1AD4D4FF00709AD4A4E
:104770000DF14808AC490DF1700BA84810AF12F0CC
:10478000FDF80DF5A27C0DF1780ECDF87C90CDF8FA
:1047900078C00EAE4FF0050A0FCDACE80F0095E8DB
:1047A000070043468CE807009EE806002FA8FDF7A7
:1047B00073F92FAA93492046FDF79CF905F10C0ED9
:1047C0000DF5947CBEE80F00CDE91CC9ACE80F00E4
:1047D0009EE807003B468CE807009BE806002CA8F3
:1047E0000DF1680BFDF758F92CAA874961A8FDF770
:1047F000BBF905F1280E0DF5867CBEE80F00CDE96A
:104800001AC9ACE80F009EE8070033468CE80700A1
:104810009BE8060029A80DF1600BFDF73DF929AAD8
:104820007A496AA8FDF7DAF937AB05F1440E9C46E0
:10483000CDE9183ABEE80F00ACE80F00DEF8003012
:1048400026A8CCF800300CAB9BE80600FDF724F955
:1048500026AA6F4973A8FDF7FBF932AB05F1580C96
:10486000CDF85CA016939A460DF1580E6C35BCE855
:104870000F00AAE80F00DCF8003023A89EE806002D
:10488000CAF800300AABFDF707F923AA61497CA8F2
:10489000FDF7DEF90DF1F00C0DF1500ECDF854904E
:1048A000CDF850C00FCDACE80F0095E8070008AB7D
:1048B0008EAD8CE807009EE8060020A8FDF7ECF816
:1048C00020AA554985A8FDF7FDF9584800238EAA6E
:1048D0002146037183604361031DC0E90333FFF781
:1048E00063FE243D05F11800FDF78EFA284612F00C
:1048F00047F9A542F5D120A84D4DFDF785FA23A82B
:10490000FDF782FA26A8FDF77FFA29A8FDF77CFAC1
:104910002CA8FDF779FA2FA8FDF776FA414A454908
:104920004FF0070941484FF0050A12F027F851AB44
:10493000C8F80490C8F800309C460FCDACE80F00D2
:1049400095E8070007AB8CE8070098E806002FA859
:10495000FDF7A2F82FAA2B492046FDF7CBF84AAB6A
:10496000A5F1100EC7F804903B609C46BEE80F000E
:10497000ACE80F0095E8070006AB8CE8070097E865
:1049800006002CA8FDF788F82CAA1F4961A8FDF79E
:10499000EBF843ABA5F1100CC6F8049033601F464A
:1049A000BCE80F000FC795E8070005AB87E80700D4
:1049B00096E8060029A805F10C07FDF76DF829AA6D
:1049C00012496AA8FDF70AF937ABCDF834A00C9369
:1049D0001E460FCF0FC63B680CAA26A805F120077C
:1049E000336004AB06CAFDF757F826AA084973A836
:1049F000FDF72EF932ABCDF82CA00A931E460FCF4F
:104A00000FC619E06CA6010874A6010884A6010867
:104A100094A60108A8A60108BCA60108080800245D
:104A200008A4010800000024ED120008200800245A
:104A3000A0A40108A10C00083B680AAA23A8A5F1BC
:104A40001007336003AB06CAFDF726F823AAB8495E
:104A50007CA8FDF7FDF83CABCDF8249008931E46EA
:104A60000FCF0FC695E8070086E8070008AA02AB3B
:104A700020A88EAD06CAFDF70FF820AAAD4985A87B
:104A8000FDF720F9AC4800238EAA2146037183600C
:104A90004361031DC0E90333FFF786FD243D05F1A3
:104AA0001800FDF7B1F9284612F06AF8A542F5D1D1
:104AB00020A8A24DFDF7A8F923A8FDF7A5F926A87F
:104AC000FDF7A2F929A8FDF79FF92CA8FDF79CF99D
:104AD0002FA8FDF799F99A4A9A4905F52068964852
:104AE00011F04CFF98480023954A984903604361B0
:104AF000036211F043FF1AE0AB7FB1EE005B2A7F47
:104B0000013B07EE102A06EE903A2B46B8EEC77B23
:104B10005035B8EEE66B45459FED834BA6EE047B22
:104B200037EE457BB7EEC77B83ED007A37D00022A6
:104B300005F124012E1D05F13C0705F10C004FF095
:104B4000040E4FF0010C4FF00209814BCDF800909C
:104B500029632A7385F824206A6385F83C2085F848
:104B60001CE085F81EC0C5E90102C5E90A213046EE
:104B70001146C5E91027C5E9127212F0A1F83C23CD
:104B8000744930466B7712F019F90028B4D12B46DE
:104B900050359FED717A454583ED007AC7D16F4D51
:104BA0000020674A6E4911F0E9FE28466D49FBF77F
:104BB000BBFF634A6C49284611F0E0FE6B496C4824
:104BC000FBF7B2FF5E4A6849694811F0D7FE5AA860
:104BD000D5E900655890EE4202D0002E00F09E808C
:104BE0000F2D519500F28D80012D40F08380337898
:104BF0008DF86831519B002558995E4A59935E485B
:104C0000CD5421461278FEF7F7F8204611F0B8FF90
:104C10004B4A5A49584811F0B1FE55495848FDF7DA
:104C20008BF801465748FDF7C3F8454A56495548A1
:104C300011F0A4FE4E494048544CFDF77DF8014662
:104C40005348FDF7B5F83E4A4F49514811F096FEDA
:104C500004F1240204F13C0304F10C01A560201DC1
:104C600061600421A364257384F8245084F83C50C7
:104C7000E564C4E90A52C4E90C25C4E910530122D1
:104C800002230093324B21772946A2772A4612F05D
:104C900017F83C232F49201D637712F08FF868B373
:104CA000A37FB1EE005B227F013B07EE102A06EEE8
:104CB000903AB8EEC77BB8EEE66B9FED1B4BA6EEC5
:104CC000047B37EE457BB7EEC77B1D4A2B492F4847
:104CD00084ED007A11F052FE194A2E492E4811F047
:104CE0004DFE174A2D492E480DF50F7DBDE8F04FBA
:104CF00011F044BE002D3FF47DAF0AE09FED167A1F
:104D0000E3E7002251A9204611F018FF519B58906B
:104D10005A932A46314612F0F1FB6BE7214811F015
:104D2000FBFE00BFAFF30080F792C6681D55B53F8C
:104D3000A8A60108BCA6010838080024F40B00242A
:104D400000000024A10C000894080024550A000863
:104D5000C8A60108F4A5010800000000F00700241F
:104D600069120008CCA60108B56C01086CA6010800
:104D7000D8070024050000249C0B00242113000800
:104D800020080024002600244D0C0008480B0024B5
:104D9000F4250024590A0008942500245D0A00081F
:104DA0007008002418A50108FFF7A2BC704700BFD7
:104DB0001F2882B009D8084B03EB400213F81030CB
:104DC000507843EA002002B0704701230C2043EAE8
:104DD000002002B0704700BFD0A60108143001F0D7
:104DE000FDBA00BF143001F0F5BA00BF38B500F1CC
:104DF000140504462DED028B284601F0DDFA284605
:104E000001F0E8FA2846B0EE408A01F0D1FAD0ED80
:104E1000007AF8EE677A88EE277ABDEC028B84ED93
:104E20000E7A38BD08B5143001F0C2FA006808BD2A
:104E3000F0B5032399B000270125129306462C4BA9
:104E400009A81595CDE90E7340F20453ADF8403032
:104E5000284BCDE91357099302F058F809A802F03E
:104E600031F9002836D1244B04AF04460090CDF828
:104E700042301023394604958DF820301F4BCDE980
:104E80001650CDE906506846059302F0A9FA0823AA
:104E9000009A01A909A8ADF804508DF806400994BC
:104EA0000295039300F032FA00230EA9384630240D
:104EB000049303F05DF803224FF07E5309A906F135
:104EC00014000B930C93CDE90942049A01F038FACF
:104ED00019B0F0BD40F60132074B169704AFADF89C
:104EE00024200998CDF84230179500F0CFF9DBE780
:104EF0000402040403030001040604030704010B75
:104F00002DE9F04304462DED028B83B0002948D0F3
:104F1000012140F2011200230091ADF804208DF828
:104F20000630304A0126304B271D304904F129084C
:104F3000626040F20272A36040F60663E16004F131
:104F400025092682A4F8252084F82760A4F82930B2
:104F500084F82B6003F0A0FB6946054648B304F1D2
:104F600030008DF8066003F0F5FA072D34D104F116
:104F700014052046FFF75CFF284601F02BFA28466F
:104F8000B0EE408A01F014FAD0ED007AF8EE677ABC
:104F900088EE277A84ED0E7A03B0BDEC028BBDE873
:104FA000F08340F2011300918DF80610ADF8043043
:104FB000B7E704F1300003F0CDFA3946204602F09D
:104FC00057FC484601F0A2FF404601F09FFF04F164
:104FD000120000F0C5FACAE73946204602F048FC44
:104FE000C5E700BF0508050905070506050A060609
:104FF0002DE9F04304467B4D002601272DED028B61
:10500000B1B00391FFF7D2FE03992046FFF778FF76
:1050100030212046FFF7EAFE2046FFF7E3FE204658
:10502000B0EE408AFFF7FEFE6F4B07EE900A6F4A24
:10503000F8EE677A0E950D926D4AC8EE278A0F92A8
:1050400093E803000B0C10901E20ADF844108DF86F
:105050004630FFF7ADFE03469FED660A04F51B7070
:10506000ADF82430099901F05BFB1820FFF7A0FE92
:10507000012205A9ADF8140004F51F7001F038FAFB
:105080000620FFF795FE03460520ADF82830FFF710
:105090008FFE9DF829305FFA80F8C0F3072584F869
:1050A000856284F8843204F283209DF8283084F8E5
:1050B000867284F8833201F029FF04F2872084F895
:1050C000878284F8885284F8896284F88A7201F0B1
:1050D0001DFF3846FFF76CFEADF828003046FFF79D
:1050E00067FE9DF82930C0F307255FFA80F884F841
:1050F0008C329DF8283084F88D6284F88E72ADF879
:105100002C0004F28B2084F88B3201F0FFFE84F82F
:10511000905284F8916212AD84F892720DF13F06BC
:105120000DF1460704F28F2084F88F8201F0EEFE25
:1051300016F8010FFFF73CFE034628461135ADF87F
:1051400030300C9901F0D8FBBE42F1D104F11807C0
:10515000042312A90722384604F5C67600259FEDE0
:10516000268A01F0D7FBE9B23846013501F0CCFDC3
:10517000F0EE480A0146B0EE680A304600230122EC
:1051800001F060F9072D06F12006ECD10EAE0DAD51
:105190000FAF3C34B1464FF0010815F8010BFFF793
:1051A00007FE034616F8010BADF81830FFF700FEB6
:1051B000034617F8010BADF81C30FFF7F9FD034665
:1051C000079A20460699ADF820305434089BCDF854
:1051D000008001F055FA4D45DFD131B0BDEC028BB6
:1051E000BDE8F083030D1A1B10A701080A0C191D56
:1051F000040B0E0F000000006F12033BFFF7EEBD23
:10520000183001F06BBD00BF38B500F5C67400F56D
:105210001B752046203401F047F9AC42F9D138BD66
:1052200008B590F8823200F51F7043B101F04AFFD3
:10523000B0FA80F04009B0FA80F0400908BD01F0F2
:1052400041FFB0FA80F0400908BD00BF542303FBC2
:1052500001003C3001F03CBA10B504463C3001F08E
:1052600051FA04F1900001F04DFA04F1E40001F06C
:1052700049FA04F59C70BDE8104001F043BA00BF44
:1052800000EB411191ED660A704700BF10B584B084
:1052900003460124ADF8040003A8ADF80C30ADF8C6
:1052A0000E4001F033FE214603A801F019FF20460D
:1052B00003F084F8002103A801F012FF204603F058
:1052C0007DF8214603A801F00BFF04B010BD00BF1C
:1052D00010B5C2F3002384B00C46017C8DF80D207C
:1052E00043EA4402FA2402238DF80C2003AA009416
:1052F00002F00CF918B10124204604B010BD044698
:105300000A2003F05BF8204604B010BD034670B5D8
:1053100043F8042B044684B007C983E80700A37947
:1053200083B91A210B461E22FA2523742046ADF8B4
:105330000C20022303AA009502F0E8F828B101200E
:1053400004B070BD1B210B46EDE70A2003F036F8D0
:105350004FF4B85200950223ADF80C20204603AA62
:10536000217C02F0D3F80028E9D10A2003F026F8C6
:1053700041F2027200950223ADF80C20204603AAE8
:10538000217C02F0C3F80028D9D10A2003F016F8D6
:10539000042200950223ADF80C20204603AA217CAC
:1053A00002F0B4F80028CAD10A2003F007F8062258
:1053B00000950223ADF80C20204603AA217C02F0C0
:1053C000A5F80028BBD10A2002F0F8FF41F208221C
:1053D00000950223ADF80C20204603AA217C02F0A0
:1053E00095F80028ABD10A20064602F0E7FF0095A9
:1053F000022303AA217C2046ADF80C6002F086F857
:1054000000289CD1304602F0D9FF009522790C2368
:105410002046002A8DF80C3003AA4FF0020314BF77
:10542000622142218DF80D10217C02F06FF80028D6
:1054300085D1304602F0C2FF2279D4E902310B4314
:10544000DBB20AB943F0400362790AB143F02003AA
:105450000E22FA258DF80D302046009502238DF896
:105460000C2003AA217C02F051F800287FF467AFDA
:105470000A2002F0A3FF102200950223ADF80C20B1
:10548000204603AA217C02F041F800287FF457AFA0
:105490000A2002F093FF122100950223ADF80C10B0
:1054A00003AA217C204602F031F800287FF447AFA0
:1054B0000A2002F083FF012209212046FFF708FF9E
:1054C000003818BF01203BE7F0B5102387B0234C0C
:1054D000012200250126002702A920460195CDE9D9
:1054E00002234FF48052CDE904670AF065FB642083
:1054F00003F010FF02A94FF480522046CDE9046763
:1055000002261027CDE902670AF056FB032210237A
:1055100002A92046CDE9022300230422CDE9042379
:105520004FF480520AF048FB40F23223042202A9D1
:10553000019310232046CDE90223019A012305920D
:105540004FF4805204930AF037FB40F606012046E0
:105550000AF052FB284607B0F0BD00BF1426002415
:105560001C4B00221C494FF0400C30B5054689B059
:105570000220596007219A601A620124DA620A2225
:105580004FF4006EDC6006922022CDE90001042079
:105590000821CDE9020103201021CDE904010820F2
:1055A0006946C3E904024FF4C072181DC3E906C27C
:1055B0004FF48052C3E909E20AF0D4FA38B9284618
:1055C000FFF782FF003818BF012009B030BD204628
:1055D00009B030BD1026002440410052614A00212C
:1055E000D0B513688EB00A91002B40F0B9805E4BA5
:1055F00001214FF683700C2411600221D3F8D420CE
:105600000026032742F48052C3F8D420D3F8D420D4
:1056100002F480520092009AD3F8E02042F0100287
:10562000C3F8E020D3F8E02002F010020192019AC2
:10563000D3F8E02042F04002C3F8E020D3F8E020A5
:1056400002F040020292029AD3F8E02042F00802EF
:10565000C3F8E020D3F8E02002F008020392039A96
:10566000D3F8E02042F48072C3F8E020D3F8E020C1
:1056700002F480720492049AD3F8E02042F080028F
:10568000C3F8E020D3F8E02002F080020592059AEA
:10569000D3F8E02042F02002C3F8E020D3F8E02065
:1056A00002F020020692069AD3F8E02042F00402AB
:1056B000C3F8E020D3F8E0300C9403F00403079320
:1056C0000323079A0B93CDE9080108A9274805F0A1
:1056D000A7FC48F23712022308A925480C94CDE90B
:1056E0000823CDE90A6705F09BFC4CF20372022304
:1056F00008A920480C94CDE90823CDE90A6705F0F4
:105700008FFC40F2FF62022308A91B480C94CDE9EC
:105710000823CDE90A6705F083FC4FF60C720223DB
:1057200008A916480C94CDE90823CDE90A6705F0CD
:1057300077FC4FF63F02022308A911480C94CDE9EB
:105740000823CDE90A6705F06BFC2022022308A993
:105750000A480C94CDE90A67CDE9082305F060FCFE
:105760000EB0D0BD0C260024004402580010025890
:1057700000180258000C025800200258001C025861
:10578000001402582DE9F04FDFF8108406460D464C
:10579000144608F118002DED028B89B000AF02F01D
:1057A000DFFCD8F8183073B3D8F81C30D8F8049060
:1057B000002B43690BBF4FF0080A4FF0100A4FF05F
:1057C000020B4FF0040BB9F1000F2AD0A200EA46F9
:1057D000012B02F1070222F00702ADEB020D684631
:1057E000ADEB020D694600F03F81022B00F0D68040
:1057F000002B6FD02246C847D5462437BD46BDECA6
:10580000028BBDE8F08FD8F81C30002BF5D0D8F80B
:1058100004904FF0080A4FF0020B4369B9F1000FF2
:10582000D4D1FB61D8F80030BB61002BE5D0D5485E
:1058300002F008FD6B46BBF1020F786108EE103AEA
:10584000FB6900F083816A465146A2EBC40295468B
:105850006200EA46B2FBFBF2AAEBC40085460AEB03
:105860008200EE46F861ADEB010DF8690EEB820C9B
:10587000C7F810C0EC46ADEB010D00EB8201CCF88F
:105880000400CCF8081001EB82013869E946CCF835
:105890000C1000EB8201CCF800A001EB8202C9E9F8
:1058A00000E0C9E90212012B00F06483022B00F032
:1058B0006C82002B00F08081620849466046BB691B
:1058C000984718EE103A24379D46BD46BDEC028B32
:1058D000BDE8F08F002C8DD01A46D8ED0C6A9FEDF4
:1058E000B27A8446331D36F922E00CF1080C07EE3B
:1058F00090EA33F922E00232F8EEE77A944267EE5A
:10590000877A67EEA67A4CED027A07EE90EAF8EE17
:10591000E77A67EE877A67EEA67A4CED017AE2D8ED
:10592000F9612246C847984ED8ED0D6A0020F96902
:105930002B1D9FED9E7A9FED9E6ADFED9E5A22E021
:10594000F4EEC67AF1EE10FAC0F2C88447F6FE72A1
:10595000D1ED017A45F8202066EEA77AF4EEC77AF9
:10596000F1EE10FA40F2F080F4EEC67AF1EE10FAA1
:10597000C0F2D58447F6FE7243F820200230083189
:1059800084427FF639AFD1ED007A66EEA77AF4EE65
:10599000C77AF1EE10FAD3D83246D9E7002C3FF49B
:1059A00029AFD8ED0C6A84469FED787A0022331D2A
:1059B0008E4656F822100CF1080C07EE901A53F898
:1059C00022100232F8EEE77A944267EE877A67EEA9
:1059D000A67A4CED027A07EE901AF8EEE77A67EEB7
:1059E000877A67EEA67A4CED017AE2D871462246B4
:1059F000C7F81CE0C847664ED8ED0D6A0020F9696B
:105A00002B1D9FED6A7A9FED6A6ADFF894C120E052
:105A1000F4EEC67AF1EE10FAC0F279843246D1ED96
:105A2000017A45F8202066EEA77AF4EEC77AF1EE07
:105A300010FA40F28780F4EEC67AF1EE10FAC0F266
:105A40005E84324643F820200230083184427FF6DB
:105A5000D3AED1ED007A66EEA77AF4EEC77AF1EE16
:105A600010FAD5D86246DAE7002C3FF4C3AED8ED81
:105A70000C6A86469FED477A4FF0000C331D56F8AE
:105A80002C200EF1080E82F40002A2F5000207EEAF
:105A9000902A53F82C200CF1020CF8EEE77A82F4ED
:105AA00000026445A2F5000267EE877A67EEA67AE7
:105AB0004EED027A07EE902AF8EEE77A67EE877AE3
:105AC00067EEA67A4EED017AD9D8F9612246C84729
:105AD000314ED8ED0D6A0020F9692B1D9FED337A08
